{
  "abi": [
    {
      "inputs": [
        {
          "internalType": "uint256",
          "name": "_id",
          "type": "uint256"
        },
        {
          "internalType": "string[]",
          "name": "_localHashes",
          "type": "string[]"
        }
      ],
      "name": "compareHashes",
      "outputs": [
        {
          "internalType": "uint256",
          "name": "similarFrames",
          "type": "uint256"
        }
      ],
      "stateMutability": "view",
      "type": "function"
    },
    {
      "inputs": [
        {
          "internalType": "string",
          "name": "hash1",
          "type": "string"
        },
        {
          "internalType": "string",
          "name": "hash2",
          "type": "string"
        }
      ],
      "name": "getHammingDistance",
      "outputs": [
        {
          "internalType": "uint256",
          "name": "distance",
          "type": "uint256"
        }
      ],
      "stateMutability": "pure",
      "type": "function"
    },
    {
      "inputs": [
        {
          "internalType": "uint256",
          "name": "_id",
          "type": "uint256"
        }
      ],
      "name": "getHashById",
      "outputs": [
        {
          "internalType": "uint256",
          "name": "",
          "type": "uint256"
        },
        {
          "internalType": "string[]",
          "name": "",
          "type": "string[]"
        }
      ],
      "stateMutability": "view",
      "type": "function"
    },
    {
      "inputs": [],
      "name": "getTotalHashes",
      "outputs": [
        {
          "internalType": "uint256",
          "name": "",
          "type": "uint256"
        }
      ],
      "stateMutability": "view",
      "type": "function"
    },
    {
      "inputs": [
        {
          "internalType": "uint256",
          "name": "",
          "type": "uint256"
        }
      ],
      "name": "idToHash",
      "outputs": [
        {
          "internalType": "uint256",
          "name": "id",
          "type": "uint256"
        }
      ],
      "stateMutability": "view",
      "type": "function"
    },
    {
      "inputs": [],
      "name": "nextId",
      "outputs": [
        {
          "internalType": "uint256",
          "name": "",
          "type": "uint256"
        }
      ],
      "stateMutability": "view",
      "type": "function"
    },
    {
      "inputs": [],
      "name": "similarityThreshold",
      "outputs": [
        {
          "internalType": "uint256",
          "name": "",
          "type": "uint256"
        }
      ],
      "stateMutability": "view",
      "type": "function"
    },
    {
      "inputs": [
        {
          "internalType": "string[]",
          "name": "_hashes",
          "type": "string[]"
        }
      ],
      "name": "storeHashes",
      "outputs": [],
      "stateMutability": "nonpayable",
      "type": "function"
    }
  ],
  "devdoc": {
    "kind": "dev",
    "methods": {},
    "version": 1
  },
  "evm": {
    "assembly": "    /* \"MyContract.sol\":67:3590  contract MyContract {... */\n  mstore(0x40, 0x80)\n    /* \"MyContract.sol\":287:288  1 */\n  0x01\n    /* \"MyContract.sol\":263:288  uint256 public nextId = 1 */\n  dup1\n  sstore\n    /* \"MyContract.sol\":334:336  10 */\n  0x0a\n    /* \"MyContract.sol\":297:336  uint256 public similarityThreshold = 10 */\n  0x02\n  sstore\n    /* \"MyContract.sol\":67:3590  contract MyContract {... */\n  callvalue\n  dup1\n  iszero\n  tag_1\n  jumpi\n  0x00\n  dup1\n  revert\ntag_1:\n  pop\n  dataSize(sub_0)\n  dup1\n  dataOffset(sub_0)\n  0x00\n  codecopy\n  0x00\n  return\nstop\n\nsub_0: assembly {\n        /* \"MyContract.sol\":67:3590  contract MyContract {... */\n      mstore(0x40, 0x80)\n      callvalue\n      dup1\n      iszero\n      tag_1\n      jumpi\n      0x00\n      dup1\n      revert\n    tag_1:\n      pop\n      jumpi(tag_2, lt(calldatasize, 0x04))\n      shr(0xe0, calldataload(0x00))\n      dup1\n      0x8fb5548f\n      gt\n      tag_11\n      jumpi\n      dup1\n      0x8fb5548f\n      eq\n      tag_7\n      jumpi\n      dup1\n      0xa4458dc4\n      eq\n      tag_8\n      jumpi\n      dup1\n      0xbe02318d\n      eq\n      tag_9\n      jumpi\n      dup1\n      0xc1727583\n      eq\n      tag_10\n      jumpi\n      0x00\n      dup1\n      revert\n    tag_11:\n      dup1\n      0x303c9fd3\n      eq\n      tag_3\n      jumpi\n      dup1\n      0x606db617\n      eq\n      tag_4\n      jumpi\n      dup1\n      0x61b8ce8c\n      eq\n      tag_5\n      jumpi\n      dup1\n      0x8f781838\n      eq\n      tag_6\n      jumpi\n    tag_2:\n      0x00\n      dup1\n      revert\n        /* \"MyContract.sol\":2207:3095  function compareHashes(uint256 _id, string[] memory _localHashes) public view returns (uint256 similarFrames) {... */\n    tag_3:\n      tag_12\n      tag_13\n      calldatasize\n      0x04\n      tag_14\n      jump\t// in\n    tag_13:\n      tag_15\n      jump\t// in\n    tag_12:\n      mload(0x40)\n        /* \"#utility.yul\":2416:2441   */\n      swap1\n      dup2\n      mstore\n        /* \"#utility.yul\":2404:2406   */\n      0x20\n        /* \"#utility.yul\":2389:2407   */\n      add\n        /* \"MyContract.sol\":2207:3095  function compareHashes(uint256 _id, string[] memory _localHashes) public view returns (uint256 similarFrames) {... */\n    tag_16:\n      mload(0x40)\n      dup1\n      swap2\n      sub\n      swap1\n      return\n        /* \"MyContract.sol\":1747:1975  function getHashById(uint256 _id) public view returns (uint256, string[] memory) {... */\n    tag_4:\n      tag_18\n      tag_19\n      calldatasize\n      0x04\n      tag_20\n      jump\t// in\n    tag_19:\n      tag_21\n      jump\t// in\n    tag_18:\n      mload(0x40)\n      tag_16\n      swap3\n      swap2\n      swap1\n      tag_23\n      jump\t// in\n        /* \"MyContract.sol\":263:288  uint256 public nextId = 1 */\n    tag_5:\n      tag_12\n      sload(0x01)\n      dup2\n      jump\n        /* \"MyContract.sol\":440:1690  function storeHashes(string[] memory _hashes) public {... */\n    tag_6:\n      tag_27\n      tag_28\n      calldatasize\n      0x04\n      tag_29\n      jump\t// in\n    tag_28:\n      tag_30\n      jump\t// in\n    tag_27:\n      stop\n        /* \"MyContract.sol\":212:256  mapping(uint256 => HashInfo) public idToHash */\n    tag_7:\n      tag_12\n      tag_32\n      calldatasize\n      0x04\n      tag_20\n      jump\t// in\n    tag_32:\n      0x00\n      0x20\n      dup2\n      swap1\n      mstore\n      swap1\n      dup2\n      mstore\n      0x40\n      swap1\n      keccak256\n      sload\n      dup2\n      jump\n        /* \"MyContract.sol\":2041:2133  function getTotalHashes() public view returns (uint256) {... */\n    tag_8:\n      tag_12\n      tag_36\n      jump\t// in\n        /* \"MyContract.sol\":3176:3587  function getHammingDistance(string memory hash1, string memory hash2) public pure returns (uint256 distance) {... */\n    tag_9:\n      tag_12\n      tag_39\n      calldatasize\n      0x04\n      tag_40\n      jump\t// in\n    tag_39:\n      tag_41\n      jump\t// in\n        /* \"MyContract.sol\":297:336  uint256 public similarityThreshold = 10 */\n    tag_10:\n      tag_12\n      sload(0x02)\n      dup2\n      jump\n        /* \"MyContract.sol\":2207:3095  function compareHashes(uint256 _id, string[] memory _localHashes) public view returns (uint256 similarFrames) {... */\n    tag_15:\n        /* \"MyContract.sol\":2294:2315  uint256 similarFrames */\n      0x00\n        /* \"MyContract.sol\":2342:2348  nextId */\n      sload(0x01)\n        /* \"MyContract.sol\":2336:2339  _id */\n      dup4\n        /* \"MyContract.sol\":2336:2348  _id < nextId */\n      lt\n        /* \"MyContract.sol\":2328:2365  require(_id < nextId, \"ID not found\") */\n      tag_47\n      jumpi\n      mload(0x40)\n      shl(0xe5, 0x461bcd)\n      dup2\n      mstore\n        /* \"#utility.yul\":4864:4866   */\n      0x20\n        /* \"MyContract.sol\":2328:2365  require(_id < nextId, \"ID not found\") */\n      0x04\n      dup3\n      add\n        /* \"#utility.yul\":4846:4867   */\n      mstore\n        /* \"#utility.yul\":4903:4905   */\n      0x0c\n        /* \"#utility.yul\":4883:4901   */\n      0x24\n      dup3\n      add\n        /* \"#utility.yul\":4876:4906   */\n      mstore\n      shl(0xa2, 0x1251081b9bdd08199bdd5b99)\n        /* \"#utility.yul\":4922:4940   */\n      0x44\n      dup3\n      add\n        /* \"#utility.yul\":4915:4957   */\n      mstore\n        /* \"#utility.yul\":4974:4992   */\n      0x64\n      add\n        /* \"MyContract.sol\":2328:2365  require(_id < nextId, \"ID not found\") */\n    tag_48:\n      mload(0x40)\n      dup1\n      swap2\n      sub\n      swap1\n      revert\n    tag_47:\n        /* \"MyContract.sol\":2376:2402  HashInfo memory storedInfo */\n      0x00\n        /* \"MyContract.sol\":2405:2418  idToHash[_id] */\n      dup4\n      dup2\n      mstore\n      0x20\n      dup2\n      dup2\n      mstore\n      0x40\n      dup1\n      dup4\n      keccak256\n        /* \"MyContract.sol\":2376:2418  HashInfo memory storedInfo = idToHash[_id] */\n      dup2\n      mload\n      dup1\n      dup4\n      add\n      dup4\n      mstore\n      dup2\n      sload\n      dup2\n      mstore\n      0x01\n      dup3\n      add\n      dup1\n      sload\n      dup5\n      mload\n      dup2\n      dup8\n      mul\n      dup2\n      add\n      dup8\n      add\n      swap1\n      swap6\n      mstore\n      dup1\n      dup6\n      mstore\n      swap2\n      swap5\n        /* \"MyContract.sol\":2405:2418  idToHash[_id] */\n      swap3\n      swap4\n        /* \"MyContract.sol\":2376:2418  HashInfo memory storedInfo = idToHash[_id] */\n      dup6\n      dup5\n      add\n      swap4\n      swap1\n      swap3\n      swap1\n        /* \"MyContract.sol\":2376:2402  HashInfo memory storedInfo */\n      dup8\n      swap1\n        /* \"MyContract.sol\":2376:2418  HashInfo memory storedInfo = idToHash[_id] */\n      dup5\n      add\n    tag_50:\n      dup3\n      dup3\n      lt\n      iszero\n      tag_51\n      jumpi\n      dup4\n      dup3\n      swap1\n      0x00\n      mstore\n      keccak256(0x00, 0x20)\n      add\n      dup1\n      sload\n      tag_53\n      swap1\n      tag_54\n      jump\t// in\n    tag_53:\n      dup1\n      0x1f\n      add\n      0x20\n      dup1\n      swap2\n      div\n      mul\n      0x20\n      add\n      mload(0x40)\n      swap1\n      dup2\n      add\n      0x40\n      mstore\n      dup1\n      swap3\n      swap2\n      swap1\n      dup2\n      dup2\n      mstore\n      0x20\n      add\n      dup3\n      dup1\n      sload\n      tag_55\n      swap1\n      tag_54\n      jump\t// in\n    tag_55:\n      dup1\n      iszero\n      tag_56\n      jumpi\n      dup1\n      0x1f\n      lt\n      tag_57\n      jumpi\n      0x0100\n      dup1\n      dup4\n      sload\n      div\n      mul\n      dup4\n      mstore\n      swap2\n      0x20\n      add\n      swap2\n      jump(tag_56)\n    tag_57:\n      dup3\n      add\n      swap2\n      swap1\n      0x00\n      mstore\n      keccak256(0x00, 0x20)\n      swap1\n    tag_58:\n      dup2\n      sload\n      dup2\n      mstore\n      swap1\n      0x01\n      add\n      swap1\n      0x20\n      add\n      dup1\n      dup4\n      gt\n      tag_58\n      jumpi\n      dup3\n      swap1\n      sub\n      0x1f\n      and\n      dup3\n      add\n      swap2\n    tag_56:\n      pop\n      pop\n      pop\n      pop\n      pop\n      dup2\n      mstore\n      0x20\n      add\n      swap1\n      0x01\n      add\n      swap1\n      jump(tag_50)\n    tag_51:\n      pop\n      pop\n      pop\n      swap2\n      mstore\n      pop\n      pop\n        /* \"MyContract.sol\":2453:2472  _localHashes.length */\n      dup4\n      mload\n        /* \"MyContract.sol\":2506:2527  storedInfo.hashValues */\n      0x20\n      dup3\n      add\n      mload\n        /* \"MyContract.sol\":2506:2534  storedInfo.hashValues.length */\n      mload\n        /* \"MyContract.sol\":2376:2418  HashInfo memory storedInfo = idToHash[_id] */\n      swap2\n      swap3\n      pop\n        /* \"MyContract.sol\":2453:2472  _localHashes.length */\n      swap1\n        /* \"MyContract.sol\":2491:2534  totalFrames == storedInfo.hashValues.length */\n      dup2\n      eq\n        /* \"MyContract.sol\":2483:2574  require(totalFrames == storedInfo.hashValues.length, \"Hash arrays must be of equal length\") */\n      tag_59\n      jumpi\n      mload(0x40)\n      shl(0xe5, 0x461bcd)\n      dup2\n      mstore\n        /* \"#utility.yul\":5590:5592   */\n      0x20\n        /* \"MyContract.sol\":2483:2574  require(totalFrames == storedInfo.hashValues.length, \"Hash arrays must be of equal length\") */\n      0x04\n      dup3\n      add\n        /* \"#utility.yul\":5572:5593   */\n      mstore\n        /* \"#utility.yul\":5629:5631   */\n      0x23\n        /* \"#utility.yul\":5609:5627   */\n      0x24\n      dup3\n      add\n        /* \"#utility.yul\":5602:5632   */\n      mstore\n        /* \"#utility.yul\":5668:5702   */\n      0x4861736820617272617973206d757374206265206f6620657175616c206c656e\n        /* \"#utility.yul\":5648:5666   */\n      0x44\n      dup3\n      add\n        /* \"#utility.yul\":5641:5703   */\n      mstore\n      shl(0xeb, 0x0cee8d)\n        /* \"#utility.yul\":5719:5737   */\n      0x64\n      dup3\n      add\n        /* \"#utility.yul\":5712:5745   */\n      mstore\n        /* \"#utility.yul\":5762:5781   */\n      0x84\n      add\n        /* \"MyContract.sol\":2483:2574  require(totalFrames == storedInfo.hashValues.length, \"Hash arrays must be of equal length\") */\n      tag_48\n        /* \"#utility.yul\":5388:5787   */\n      jump\n        /* \"MyContract.sol\":2483:2574  require(totalFrames == storedInfo.hashValues.length, \"Hash arrays must be of equal length\") */\n    tag_59:\n        /* \"MyContract.sol\":2603:2604  0 */\n      0x00\n        /* \"MyContract.sol\":2587:2604  similarFrames = 0 */\n      swap3\n      pop\n        /* \"MyContract.sol\":2692:2701  uint256 i */\n      0x00\n        /* \"MyContract.sol\":2687:3055  for (uint256 i = 0; i < totalFrames; i++) {... */\n    tag_62:\n        /* \"MyContract.sol\":2711:2722  totalFrames */\n      dup2\n        /* \"MyContract.sol\":2707:2708  i */\n      dup2\n        /* \"MyContract.sol\":2707:2722  i < totalFrames */\n      lt\n        /* \"MyContract.sol\":2687:3055  for (uint256 i = 0; i < totalFrames; i++) {... */\n      iszero\n      tag_63\n      jumpi\n        /* \"MyContract.sol\":2744:2760  uint256 distance */\n      0x00\n        /* \"MyContract.sol\":2763:2824  getHammingDistance(_localHashes[i], storedInfo.hashValues[i]) */\n      tag_65\n        /* \"MyContract.sol\":2782:2794  _localHashes */\n      dup7\n        /* \"MyContract.sol\":2795:2796  i */\n      dup4\n        /* \"MyContract.sol\":2782:2797  _localHashes[i] */\n      dup2\n      mload\n      dup2\n      lt\n      tag_67\n      jumpi\n      tag_67\n      tag_68\n      jump\t// in\n    tag_67:\n      0x20\n      mul\n      0x20\n      add\n      add\n      mload\n        /* \"MyContract.sol\":2799:2809  storedInfo */\n      dup6\n        /* \"MyContract.sol\":2799:2820  storedInfo.hashValues */\n      0x20\n      add\n      mload\n        /* \"MyContract.sol\":2821:2822  i */\n      dup5\n        /* \"MyContract.sol\":2799:2823  storedInfo.hashValues[i] */\n      dup2\n      mload\n      dup2\n      lt\n      tag_70\n      jumpi\n      tag_70\n      tag_68\n      jump\t// in\n    tag_70:\n      0x20\n      mul\n      0x20\n      add\n      add\n      mload\n        /* \"MyContract.sol\":2763:2781  getHammingDistance */\n      tag_41\n        /* \"MyContract.sol\":2763:2824  getHammingDistance(_localHashes[i], storedInfo.hashValues[i]) */\n      jump\t// in\n    tag_65:\n        /* \"MyContract.sol\":2744:2824  uint256 distance = getHammingDistance(_localHashes[i], storedInfo.hashValues[i]) */\n      swap1\n      pop\n        /* \"MyContract.sol\":2929:2948  similarityThreshold */\n      sload(0x02)\n        /* \"MyContract.sol\":2917:2925  distance */\n      dup2\n        /* \"MyContract.sol\":2917:2948  distance <= similarityThreshold */\n      gt\n        /* \"MyContract.sol\":2913:3044  if (distance <= similarityThreshold) {  // Set your threshold here, for example 10... */\n      tag_71\n      jumpi\n        /* \"MyContract.sol\":3013:3028  similarFrames++ */\n      dup5\n      tag_72\n      dup2\n      tag_73\n      jump\t// in\n    tag_72:\n      swap6\n      pop\n      pop\n        /* \"MyContract.sol\":2913:3044  if (distance <= similarityThreshold) {  // Set your threshold here, for example 10... */\n    tag_71:\n      pop\n        /* \"MyContract.sol\":2724:2727  i++ */\n      0x01\n      add\n        /* \"MyContract.sol\":2687:3055  for (uint256 i = 0; i < totalFrames; i++) {... */\n      jump(tag_62)\n    tag_63:\n      pop\n        /* \"MyContract.sol\":3067:3087  return similarFrames */\n      pop\n      pop\n        /* \"MyContract.sol\":2207:3095  function compareHashes(uint256 _id, string[] memory _localHashes) public view returns (uint256 similarFrames) {... */\n    tag_46:\n      swap3\n      swap2\n      pop\n      pop\n      jump\t// out\n        /* \"MyContract.sol\":1747:1975  function getHashById(uint256 _id) public view returns (uint256, string[] memory) {... */\n    tag_21:\n        /* \"MyContract.sol\":1802:1809  uint256 */\n      0x00\n        /* \"MyContract.sol\":1811:1826  string[] memory */\n      0x60\n        /* \"MyContract.sol\":1853:1859  nextId */\n      sload(0x01)\n        /* \"MyContract.sol\":1847:1850  _id */\n      dup4\n        /* \"MyContract.sol\":1847:1859  _id < nextId */\n      lt\n        /* \"MyContract.sol\":1839:1876  require(_id < nextId, \"ID not found\") */\n      tag_75\n      jumpi\n      mload(0x40)\n      shl(0xe5, 0x461bcd)\n      dup2\n      mstore\n        /* \"#utility.yul\":4864:4866   */\n      0x20\n        /* \"MyContract.sol\":1839:1876  require(_id < nextId, \"ID not found\") */\n      0x04\n      dup3\n      add\n        /* \"#utility.yul\":4846:4867   */\n      mstore\n        /* \"#utility.yul\":4903:4905   */\n      0x0c\n        /* \"#utility.yul\":4883:4901   */\n      0x24\n      dup3\n      add\n        /* \"#utility.yul\":4876:4906   */\n      mstore\n      shl(0xa2, 0x1251081b9bdd08199bdd5b99)\n        /* \"#utility.yul\":4922:4940   */\n      0x44\n      dup3\n      add\n        /* \"#utility.yul\":4915:4957   */\n      mstore\n        /* \"#utility.yul\":4974:4992   */\n      0x64\n      add\n        /* \"MyContract.sol\":1839:1876  require(_id < nextId, \"ID not found\") */\n      tag_48\n        /* \"#utility.yul\":4662:4998   */\n      jump\n        /* \"MyContract.sol\":1839:1876  require(_id < nextId, \"ID not found\") */\n    tag_75:\n        /* \"MyContract.sol\":1887:1907  HashInfo memory info */\n      0x00\n        /* \"MyContract.sol\":1910:1923  idToHash[_id] */\n      dup4\n      dup2\n      mstore\n      0x20\n      dup2\n      dup2\n      mstore\n      0x40\n      dup1\n      dup4\n      keccak256\n        /* \"MyContract.sol\":1887:1923  HashInfo memory info = idToHash[_id] */\n      dup2\n      mload\n      dup1\n      dup4\n      add\n      dup4\n      mstore\n      dup2\n      sload\n      dup2\n      mstore\n      0x01\n      dup3\n      add\n      dup1\n      sload\n      dup5\n      mload\n      dup2\n      dup8\n      mul\n      dup2\n      add\n      dup8\n      add\n      swap1\n      swap6\n      mstore\n      dup1\n      dup6\n      mstore\n      swap2\n      swap5\n        /* \"MyContract.sol\":1910:1923  idToHash[_id] */\n      swap3\n      swap4\n        /* \"MyContract.sol\":1887:1923  HashInfo memory info = idToHash[_id] */\n      dup6\n      dup5\n      add\n      swap4\n      swap1\n      swap3\n      swap1\n        /* \"MyContract.sol\":1887:1907  HashInfo memory info */\n      dup8\n      swap1\n        /* \"MyContract.sol\":1887:1923  HashInfo memory info = idToHash[_id] */\n      dup5\n      add\n    tag_77:\n      dup3\n      dup3\n      lt\n      iszero\n      tag_78\n      jumpi\n      dup4\n      dup3\n      swap1\n      0x00\n      mstore\n      keccak256(0x00, 0x20)\n      add\n      dup1\n      sload\n      tag_80\n      swap1\n      tag_54\n      jump\t// in\n    tag_80:\n      dup1\n      0x1f\n      add\n      0x20\n      dup1\n      swap2\n      div\n      mul\n      0x20\n      add\n      mload(0x40)\n      swap1\n      dup2\n      add\n      0x40\n      mstore\n      dup1\n      swap3\n      swap2\n      swap1\n      dup2\n      dup2\n      mstore\n      0x20\n      add\n      dup3\n      dup1\n      sload\n      tag_81\n      swap1\n      tag_54\n      jump\t// in\n    tag_81:\n      dup1\n      iszero\n      tag_82\n      jumpi\n      dup1\n      0x1f\n      lt\n      tag_83\n      jumpi\n      0x0100\n      dup1\n      dup4\n      sload\n      div\n      mul\n      dup4\n      mstore\n      swap2\n      0x20\n      add\n      swap2\n      jump(tag_82)\n    tag_83:\n      dup3\n      add\n      swap2\n      swap1\n      0x00\n      mstore\n      keccak256(0x00, 0x20)\n      swap1\n    tag_84:\n      dup2\n      sload\n      dup2\n      mstore\n      swap1\n      0x01\n      add\n      swap1\n      0x20\n      add\n      dup1\n      dup4\n      gt\n      tag_84\n      jumpi\n      dup3\n      swap1\n      sub\n      0x1f\n      and\n      dup3\n      add\n      swap2\n    tag_82:\n      pop\n      pop\n      pop\n      pop\n      pop\n      dup2\n      mstore\n      0x20\n      add\n      swap1\n      0x01\n      add\n      swap1\n      jump(tag_77)\n    tag_78:\n      pop\n      pop\n      pop\n      swap2\n      mstore\n      pop\n      pop\n        /* \"MyContract.sol\":1942:1949  info.id */\n      dup1\n      mload\n        /* \"MyContract.sol\":1951:1966  info.hashValues */\n      0x20\n      swap1\n      swap2\n      add\n      mload\n        /* \"MyContract.sol\":1942:1949  info.id */\n      swap1\n      swap6\n        /* \"MyContract.sol\":1951:1966  info.hashValues */\n      swap1\n      swap5\n      pop\n        /* \"MyContract.sol\":1747:1975  function getHashById(uint256 _id) public view returns (uint256, string[] memory) {... */\n      swap3\n      pop\n      pop\n      pop\n      jump\t// out\n        /* \"MyContract.sol\":440:1690  function storeHashes(string[] memory _hashes) public {... */\n    tag_30:\n        /* \"MyContract.sol\":559:566  _hashes */\n      dup1\n        /* \"MyContract.sol\":559:573  _hashes.length */\n      mload\n        /* \"MyContract.sol\":577:579  20 */\n      0x14\n        /* \"MyContract.sol\":559:579  _hashes.length == 20 */\n      eq\n        /* \"MyContract.sol\":551:614  require(_hashes.length == 20, \"Must provide exactly 20 hashes\") */\n      tag_86\n      jumpi\n      mload(0x40)\n      shl(0xe5, 0x461bcd)\n      dup2\n      mstore\n        /* \"#utility.yul\":6398:6400   */\n      0x20\n        /* \"MyContract.sol\":551:614  require(_hashes.length == 20, \"Must provide exactly 20 hashes\") */\n      0x04\n      dup3\n      add\n        /* \"#utility.yul\":6380:6401   */\n      mstore\n        /* \"#utility.yul\":6437:6439   */\n      0x1e\n        /* \"#utility.yul\":6417:6435   */\n      0x24\n      dup3\n      add\n        /* \"#utility.yul\":6410:6440   */\n      mstore\n        /* \"#utility.yul\":6476:6508   */\n      0x4d7573742070726f766964652065786163746c79203230206861736865730000\n        /* \"#utility.yul\":6456:6474   */\n      0x44\n      dup3\n      add\n        /* \"#utility.yul\":6449:6509   */\n      mstore\n        /* \"#utility.yul\":6526:6544   */\n      0x64\n      add\n        /* \"MyContract.sol\":551:614  require(_hashes.length == 20, \"Must provide exactly 20 hashes\") */\n      tag_48\n        /* \"#utility.yul\":6196:6550   */\n      jump\n        /* \"MyContract.sol\":551:614  require(_hashes.length == 20, \"Must provide exactly 20 hashes\") */\n    tag_86:\n        /* \"MyContract.sol\":713:714  1 */\n      0x01\n        /* \"MyContract.sol\":696:1481  for (uint256 i = 1; i < nextId; i++) {... */\n    tag_89:\n        /* \"MyContract.sol\":720:726  nextId */\n      sload(0x01)\n        /* \"MyContract.sol\":716:717  i */\n      dup2\n        /* \"MyContract.sol\":716:726  i < nextId */\n      lt\n        /* \"MyContract.sol\":696:1481  for (uint256 i = 1; i < nextId; i++) {... */\n      iszero\n      tag_90\n      jumpi\n        /* \"MyContract.sol\":751:779  string[] memory storedHashes */\n      0x00\n        /* \"MyContract.sol\":783:797  getHashById(i) */\n      tag_92\n        /* \"MyContract.sol\":795:796  i */\n      dup3\n        /* \"MyContract.sol\":783:794  getHashById */\n      tag_21\n        /* \"MyContract.sol\":783:797  getHashById(i) */\n      jump\t// in\n    tag_92:\n        /* \"MyContract.sol\":748:797  (, string[] memory storedHashes) = getHashById(i) */\n      swap2\n      pop\n        /* \"MyContract.sol\":864:868  true */\n      0x01\n      swap1\n      pop\n        /* \"MyContract.sol\":847:861  bool isSimilar */\n      0x00\n        /* \"MyContract.sol\":883:1273  for (uint256 j = 0; j < _hashes.length; j++) {... */\n    tag_93:\n        /* \"MyContract.sol\":907:914  _hashes */\n      dup5\n        /* \"MyContract.sol\":907:921  _hashes.length */\n      mload\n        /* \"MyContract.sol\":903:904  j */\n      dup2\n        /* \"MyContract.sol\":903:921  j < _hashes.length */\n      lt\n        /* \"MyContract.sol\":883:1273  for (uint256 j = 0; j < _hashes.length; j++) {... */\n      iszero\n      tag_94\n      jumpi\n        /* \"MyContract.sol\":947:963  uint256 distance */\n      0x00\n        /* \"MyContract.sol\":966:1013  getHammingDistance(_hashes[j], storedHashes[j]) */\n      tag_96\n        /* \"MyContract.sol\":985:992  _hashes */\n      dup7\n        /* \"MyContract.sol\":993:994  j */\n      dup4\n        /* \"MyContract.sol\":985:995  _hashes[j] */\n      dup2\n      mload\n      dup2\n      lt\n      tag_98\n      jumpi\n      tag_98\n      tag_68\n      jump\t// in\n    tag_98:\n      0x20\n      mul\n      0x20\n      add\n      add\n      mload\n        /* \"MyContract.sol\":997:1009  storedHashes */\n      dup6\n        /* \"MyContract.sol\":1010:1011  j */\n      dup5\n        /* \"MyContract.sol\":997:1012  storedHashes[j] */\n      dup2\n      mload\n      dup2\n      lt\n      tag_70\n      jumpi\n      tag_70\n      tag_68\n      jump\t// in\n        /* \"MyContract.sol\":966:1013  getHammingDistance(_hashes[j], storedHashes[j]) */\n    tag_96:\n        /* \"MyContract.sol\":947:1013  uint256 distance = getHammingDistance(_hashes[j], storedHashes[j]) */\n      swap1\n      pop\n        /* \"MyContract.sol\":1149:1168  similarityThreshold */\n      sload(0x02)\n        /* \"MyContract.sol\":1138:1146  distance */\n      dup2\n        /* \"MyContract.sol\":1138:1168  distance > similarityThreshold */\n      gt\n        /* \"MyContract.sol\":1134:1258  if (distance > similarityThreshold) {... */\n      iszero\n      tag_101\n      jumpi\n        /* \"MyContract.sol\":1205:1210  false */\n      0x00\n        /* \"MyContract.sol\":1193:1210  isSimilar = false */\n      swap3\n      pop\n        /* \"MyContract.sol\":1233:1238  break */\n      pop\n      jump(tag_94)\n        /* \"MyContract.sol\":1134:1258  if (distance > similarityThreshold) {... */\n    tag_101:\n      pop\n        /* \"MyContract.sol\":923:926  j++ */\n      0x01\n      add\n        /* \"MyContract.sol\":883:1273  for (uint256 j = 0; j < _hashes.length; j++) {... */\n      jump(tag_93)\n    tag_94:\n      pop\n        /* \"MyContract.sol\":1364:1373  isSimilar */\n      dup1\n        /* \"MyContract.sol\":1360:1470  if (isSimilar) {... */\n      iszero\n      tag_102\n      jumpi\n        /* \"MyContract.sol\":1394:1454  revert(\"These hashes are too similar to an existing entry.\") */\n      mload(0x40)\n      shl(0xe5, 0x461bcd)\n      dup2\n      mstore\n        /* \"#utility.yul\":6757:6759   */\n      0x20\n        /* \"MyContract.sol\":1394:1454  revert(\"These hashes are too similar to an existing entry.\") */\n      0x04\n      dup3\n      add\n        /* \"#utility.yul\":6739:6760   */\n      mstore\n        /* \"#utility.yul\":6796:6798   */\n      0x32\n        /* \"#utility.yul\":6776:6794   */\n      0x24\n      dup3\n      add\n        /* \"#utility.yul\":6769:6799   */\n      mstore\n        /* \"#utility.yul\":6835:6869   */\n      0x5468657365206861736865732061726520746f6f2073696d696c617220746f20\n        /* \"#utility.yul\":6815:6833   */\n      0x44\n      dup3\n      add\n        /* \"#utility.yul\":6808:6870   */\n      mstore\n        /* \"#utility.yul\":6906:6926   */\n      0x616e206578697374696e6720656e7472792e0000000000000000000000000000\n        /* \"#utility.yul\":6886:6904   */\n      0x64\n      dup3\n      add\n        /* \"#utility.yul\":6879:6927   */\n      mstore\n        /* \"#utility.yul\":6944:6963   */\n      0x84\n      add\n        /* \"MyContract.sol\":1394:1454  revert(\"These hashes are too similar to an existing entry.\") */\n      tag_48\n        /* \"#utility.yul\":6555:6969   */\n      jump\n        /* \"MyContract.sol\":1360:1470  if (isSimilar) {... */\n    tag_102:\n      pop\n      pop\n        /* \"MyContract.sol\":728:731  i++ */\n      0x01\n      add\n        /* \"MyContract.sol\":696:1481  for (uint256 i = 1; i < nextId; i++) {... */\n      jump(tag_89)\n    tag_90:\n      pop\n        /* \"MyContract.sol\":1591:1597  nextId */\n      0x01\n      dup1\n      sload\n        /* \"MyContract.sol\":1558:1579  HashInfo storage info */\n      0x00\n        /* \"MyContract.sol\":1582:1598  idToHash[nextId] */\n      dup2\n      dup2\n      mstore\n      0x20\n      dup2\n      dup2\n      mstore\n      0x40\n      swap1\n      swap2\n      keccak256\n        /* \"MyContract.sol\":1609:1625  info.id = nextId */\n      swap2\n      dup3\n      sstore\n        /* \"MyContract.sol\":1636:1661  info.hashValues = _hashes */\n      dup4\n      mload\n        /* \"MyContract.sol\":1582:1598  idToHash[nextId] */\n      swap2\n      swap3\n        /* \"MyContract.sol\":1636:1661  info.hashValues = _hashes */\n      tag_105\n      swap3\n        /* \"MyContract.sol\":1636:1651  info.hashValues */\n      swap1\n      dup5\n      add\n      swap2\n        /* \"MyContract.sol\":1636:1661  info.hashValues = _hashes */\n      dup6\n      add\n      swap1\n      tag_106\n      jump\t// in\n    tag_105:\n      pop\n        /* \"MyContract.sol\":1674:1680  nextId */\n      0x01\n        /* \"MyContract.sol\":1674:1682  nextId++ */\n      dup1\n      sload\n      swap1\n        /* \"MyContract.sol\":1674:1680  nextId */\n      0x00\n        /* \"MyContract.sol\":1674:1682  nextId++ */\n      tag_107\n      dup4\n      tag_73\n      jump\t// in\n    tag_107:\n      swap2\n      swap1\n      pop\n      sstore\n      pop\n        /* \"MyContract.sol\":493:1690  {... */\n      pop\n        /* \"MyContract.sol\":440:1690  function storeHashes(string[] memory _hashes) public {... */\n      pop\n      jump\t// out\n        /* \"MyContract.sol\":2041:2133  function getTotalHashes() public view returns (uint256) {... */\n    tag_36:\n        /* \"MyContract.sol\":2088:2095  uint256 */\n      0x00\n        /* \"MyContract.sol\":2124:2125  1 */\n      0x01\n        /* \"MyContract.sol\":2115:2121  nextId */\n      dup1\n      sload\n        /* \"MyContract.sol\":2115:2125  nextId - 1 */\n      tag_109\n      swap2\n      swap1\n      tag_110\n      jump\t// in\n    tag_109:\n        /* \"MyContract.sol\":2108:2125  return nextId - 1 */\n      swap1\n      pop\n        /* \"MyContract.sol\":2041:2133  function getTotalHashes() public view returns (uint256) {... */\n      swap1\n      jump\t// out\n        /* \"MyContract.sol\":3176:3587  function getHammingDistance(string memory hash1, string memory hash2) public pure returns (uint256 distance) {... */\n    tag_41:\n        /* \"MyContract.sol\":3267:3283  uint256 distance */\n      0x00\n        /* \"MyContract.sol\":3333:3338  hash2 */\n      dup2\n        /* \"MyContract.sol\":3327:3346  bytes(hash2).length */\n      mload\n        /* \"MyContract.sol\":3310:3315  hash1 */\n      dup4\n        /* \"MyContract.sol\":3304:3323  bytes(hash1).length */\n      mload\n        /* \"MyContract.sol\":3304:3346  bytes(hash1).length == bytes(hash2).length */\n      eq\n        /* \"MyContract.sol\":3296:3383  require(bytes(hash1).length == bytes(hash2).length, \"Hashes must have the same length\") */\n      tag_112\n      jumpi\n      mload(0x40)\n      shl(0xe5, 0x461bcd)\n      dup2\n      mstore\n        /* \"#utility.yul\":7309:7311   */\n      0x20\n        /* \"MyContract.sol\":3296:3383  require(bytes(hash1).length == bytes(hash2).length, \"Hashes must have the same length\") */\n      0x04\n      dup3\n      add\n        /* \"#utility.yul\":7291:7312   */\n      dup2\n      swap1\n      mstore\n        /* \"#utility.yul\":7328:7346   */\n      0x24\n      dup3\n      add\n        /* \"#utility.yul\":7321:7351   */\n      mstore\n        /* \"#utility.yul\":7387:7421   */\n      0x486173686573206d7573742068617665207468652073616d65206c656e677468\n        /* \"#utility.yul\":7367:7385   */\n      0x44\n      dup3\n      add\n        /* \"#utility.yul\":7360:7422   */\n      mstore\n        /* \"#utility.yul\":7439:7457   */\n      0x64\n      add\n        /* \"MyContract.sol\":3296:3383  require(bytes(hash1).length == bytes(hash2).length, \"Hashes must have the same length\") */\n      tag_48\n        /* \"#utility.yul\":7107:7463   */\n      jump\n        /* \"MyContract.sol\":3296:3383  require(bytes(hash1).length == bytes(hash2).length, \"Hashes must have the same length\") */\n    tag_112:\n      pop\n        /* \"MyContract.sol\":3405:3406  0 */\n      0x00\n      dup1\n        /* \"MyContract.sol\":3419:3580  for (uint256 i = 0; i < bytes(hash1).length; i++) {... */\n    tag_115:\n        /* \"MyContract.sol\":3449:3454  hash1 */\n      dup4\n        /* \"MyContract.sol\":3443:3462  bytes(hash1).length */\n      mload\n        /* \"MyContract.sol\":3439:3440  i */\n      dup2\n        /* \"MyContract.sol\":3439:3462  i < bytes(hash1).length */\n      lt\n        /* \"MyContract.sol\":3419:3580  for (uint256 i = 0; i < bytes(hash1).length; i++) {... */\n      iszero\n      tag_116\n      jumpi\n        /* \"MyContract.sol\":3513:3518  hash2 */\n      dup3\n        /* \"MyContract.sol\":3520:3521  i */\n      dup2\n        /* \"MyContract.sol\":3507:3522  bytes(hash2)[i] */\n      dup2\n      mload\n      dup2\n      lt\n      tag_119\n      jumpi\n      tag_119\n      tag_68\n      jump\t// in\n    tag_119:\n      0x20\n      add\n      add\n      mload\n      0xf8\n      shr\n      0xf8\n      shl\n        /* \"MyContract.sol\":3488:3522  bytes(hash1)[i] != bytes(hash2)[i] */\n      not(0xffffffffffffffffffffffffffffffffffffffffffffffffffffffffffffff)\n      and\n        /* \"MyContract.sol\":3494:3499  hash1 */\n      dup5\n        /* \"MyContract.sol\":3501:3502  i */\n      dup3\n        /* \"MyContract.sol\":3488:3503  bytes(hash1)[i] */\n      dup2\n      mload\n      dup2\n      lt\n      tag_121\n      jumpi\n      tag_121\n      tag_68\n      jump\t// in\n    tag_121:\n      add\n      0x20\n      add\n      mload\n      0xff00000000000000000000000000000000000000000000000000000000000000\n      and\n        /* \"MyContract.sol\":3488:3522  bytes(hash1)[i] != bytes(hash2)[i] */\n      eq\n        /* \"MyContract.sol\":3484:3569  if (bytes(hash1)[i] != bytes(hash2)[i]) {... */\n      tag_122\n      jumpi\n        /* \"MyContract.sol\":3543:3553  distance++ */\n      dup2\n      tag_123\n      dup2\n      tag_73\n      jump\t// in\n    tag_123:\n      swap3\n      pop\n      pop\n        /* \"MyContract.sol\":3484:3569  if (bytes(hash1)[i] != bytes(hash2)[i]) {... */\n    tag_122:\n        /* \"MyContract.sol\":3464:3467  i++ */\n      0x01\n      add\n        /* \"MyContract.sol\":3419:3580  for (uint256 i = 0; i < bytes(hash1).length; i++) {... */\n      jump(tag_115)\n    tag_116:\n      pop\n        /* \"MyContract.sol\":3176:3587  function getHammingDistance(string memory hash1, string memory hash2) public pure returns (uint256 distance) {... */\n      swap3\n      swap2\n      pop\n      pop\n      jump\t// out\n    tag_106:\n      dup3\n      dup1\n      sload\n      dup3\n      dup3\n      sstore\n      swap1\n      0x00\n      mstore\n      keccak256(0x00, 0x20)\n      swap1\n      dup2\n      add\n      swap3\n      dup3\n      iszero\n      tag_126\n      jumpi\n      swap2\n      0x20\n      mul\n      dup3\n      add\n    tag_125:\n      dup3\n      dup2\n      gt\n      iszero\n      tag_126\n      jumpi\n      dup3\n      mload\n      dup3\n      swap1\n      tag_127\n      swap1\n      dup3\n      tag_128\n      jump\t// in\n    tag_127:\n      pop\n      swap2\n      0x20\n      add\n      swap2\n      swap1\n      0x01\n      add\n      swap1\n      jump(tag_125)\n    tag_126:\n      pop\n      tag_129\n      swap3\n      swap2\n      pop\n      tag_130\n      jump\t// in\n    tag_129:\n      pop\n      swap1\n      jump\t// out\n    tag_130:\n      dup1\n      dup3\n      gt\n      iszero\n      tag_129\n      jumpi\n      0x00\n      tag_133\n      dup3\n      dup3\n      tag_134\n      jump\t// in\n    tag_133:\n      pop\n      0x01\n      add\n      jump(tag_130)\n    tag_134:\n      pop\n      dup1\n      sload\n      tag_135\n      swap1\n      tag_54\n      jump\t// in\n    tag_135:\n      0x00\n      dup3\n      sstore\n      dup1\n      0x1f\n      lt\n      tag_137\n      jumpi\n      pop\n      pop\n      jump\t// out\n    tag_137:\n      0x1f\n      add\n      0x20\n      swap1\n      div\n      swap1\n      0x00\n      mstore\n      keccak256(0x00, 0x20)\n      swap1\n      dup2\n      add\n      swap1\n      tag_138\n      swap2\n      swap1\n      tag_139\n      jump\t// in\n    tag_138:\n      pop\n      jump\t// out\n    tag_139:\n    tag_140:\n      dup1\n      dup3\n      gt\n      iszero\n      tag_129\n      jumpi\n      0x00\n      dup2\n      sstore\n      0x01\n      add\n      jump(tag_140)\n        /* \"#utility.yul\":14:141   */\n    tag_142:\n        /* \"#utility.yul\":75:85   */\n      0x4e487b71\n        /* \"#utility.yul\":70:73   */\n      0xe0\n        /* \"#utility.yul\":66:86   */\n      shl\n        /* \"#utility.yul\":63:64   */\n      0x00\n        /* \"#utility.yul\":56:87   */\n      mstore\n        /* \"#utility.yul\":106:110   */\n      0x41\n        /* \"#utility.yul\":103:104   */\n      0x04\n        /* \"#utility.yul\":96:111   */\n      mstore\n        /* \"#utility.yul\":130:134   */\n      0x24\n        /* \"#utility.yul\":127:128   */\n      0x00\n        /* \"#utility.yul\":120:135   */\n      revert\n        /* \"#utility.yul\":146:421   */\n    tag_143:\n        /* \"#utility.yul\":217:219   */\n      0x40\n        /* \"#utility.yul\":211:220   */\n      mload\n        /* \"#utility.yul\":282:284   */\n      0x1f\n        /* \"#utility.yul\":263:276   */\n      dup3\n      add\n      not(0x1f)\n        /* \"#utility.yul\":259:286   */\n      and\n        /* \"#utility.yul\":247:287   */\n      dup2\n      add\n        /* \"#utility.yul\":317:335   */\n      0xffffffffffffffff\n        /* \"#utility.yul\":302:336   */\n      dup2\n      gt\n        /* \"#utility.yul\":338:360   */\n      dup3\n      dup3\n      lt\n        /* \"#utility.yul\":299:361   */\n      or\n        /* \"#utility.yul\":296:384   */\n      iszero\n      tag_154\n      jumpi\n        /* \"#utility.yul\":364:382   */\n      tag_154\n      tag_142\n      jump\t// in\n    tag_154:\n        /* \"#utility.yul\":400:402   */\n      0x40\n        /* \"#utility.yul\":393:415   */\n      mstore\n        /* \"#utility.yul\":146:421   */\n      swap2\n      swap1\n      pop\n      jump\t// out\n        /* \"#utility.yul\":426:957   */\n    tag_144:\n        /* \"#utility.yul\":469:474   */\n      0x00\n        /* \"#utility.yul\":522:525   */\n      dup3\n        /* \"#utility.yul\":515:519   */\n      0x1f\n        /* \"#utility.yul\":507:513   */\n      dup4\n        /* \"#utility.yul\":503:520   */\n      add\n        /* \"#utility.yul\":499:526   */\n      slt\n        /* \"#utility.yul\":489:544   */\n      tag_156\n      jumpi\n        /* \"#utility.yul\":540:541   */\n      0x00\n        /* \"#utility.yul\":537:538   */\n      dup1\n        /* \"#utility.yul\":530:542   */\n      revert\n        /* \"#utility.yul\":489:544   */\n    tag_156:\n        /* \"#utility.yul\":576:582   */\n      dup2\n        /* \"#utility.yul\":563:583   */\n      calldataload\n        /* \"#utility.yul\":602:620   */\n      0xffffffffffffffff\n        /* \"#utility.yul\":598:600   */\n      dup2\n        /* \"#utility.yul\":595:621   */\n      gt\n        /* \"#utility.yul\":592:644   */\n      iszero\n      tag_158\n      jumpi\n        /* \"#utility.yul\":624:642   */\n      tag_158\n      tag_142\n      jump\t// in\n    tag_158:\n        /* \"#utility.yul\":668:723   */\n      tag_159\n        /* \"#utility.yul\":711:713   */\n      0x1f\n        /* \"#utility.yul\":692:705   */\n      dup3\n      add\n      not(0x1f)\n        /* \"#utility.yul\":688:715   */\n      and\n        /* \"#utility.yul\":717:721   */\n      0x20\n        /* \"#utility.yul\":684:722   */\n      add\n        /* \"#utility.yul\":668:723   */\n      tag_143\n      jump\t// in\n    tag_159:\n        /* \"#utility.yul\":748:750   */\n      dup2\n        /* \"#utility.yul\":739:746   */\n      dup2\n        /* \"#utility.yul\":732:751   */\n      mstore\n        /* \"#utility.yul\":794:797   */\n      dup5\n        /* \"#utility.yul\":787:791   */\n      0x20\n        /* \"#utility.yul\":782:784   */\n      dup4\n        /* \"#utility.yul\":774:780   */\n      dup7\n        /* \"#utility.yul\":770:785   */\n      add\n        /* \"#utility.yul\":766:792   */\n      add\n        /* \"#utility.yul\":763:798   */\n      gt\n        /* \"#utility.yul\":760:815   */\n      iszero\n      tag_160\n      jumpi\n        /* \"#utility.yul\":811:812   */\n      0x00\n        /* \"#utility.yul\":808:809   */\n      dup1\n        /* \"#utility.yul\":801:813   */\n      revert\n        /* \"#utility.yul\":760:815   */\n    tag_160:\n        /* \"#utility.yul\":876:878   */\n      dup2\n        /* \"#utility.yul\":869:873   */\n      0x20\n        /* \"#utility.yul\":861:867   */\n      dup6\n        /* \"#utility.yul\":857:874   */\n      add\n        /* \"#utility.yul\":850:854   */\n      0x20\n        /* \"#utility.yul\":841:848   */\n      dup4\n        /* \"#utility.yul\":837:855   */\n      add\n        /* \"#utility.yul\":824:879   */\n      calldatacopy\n        /* \"#utility.yul\":924:925   */\n      0x00\n        /* \"#utility.yul\":899:915   */\n      swap2\n      dup2\n      add\n        /* \"#utility.yul\":917:921   */\n      0x20\n        /* \"#utility.yul\":895:922   */\n      add\n        /* \"#utility.yul\":888:926   */\n      swap2\n      swap1\n      swap2\n      mstore\n        /* \"#utility.yul\":903:910   */\n      swap4\n        /* \"#utility.yul\":426:957   */\n      swap3\n      pop\n      pop\n      pop\n      jump\t// out\n        /* \"#utility.yul\":962:1835   */\n    tag_145:\n        /* \"#utility.yul\":1015:1020   */\n      0x00\n        /* \"#utility.yul\":1068:1071   */\n      dup3\n        /* \"#utility.yul\":1061:1065   */\n      0x1f\n        /* \"#utility.yul\":1053:1059   */\n      dup4\n        /* \"#utility.yul\":1049:1066   */\n      add\n        /* \"#utility.yul\":1045:1072   */\n      slt\n        /* \"#utility.yul\":1035:1090   */\n      tag_162\n      jumpi\n        /* \"#utility.yul\":1086:1087   */\n      0x00\n        /* \"#utility.yul\":1083:1084   */\n      dup1\n        /* \"#utility.yul\":1076:1088   */\n      revert\n        /* \"#utility.yul\":1035:1090   */\n    tag_162:\n        /* \"#utility.yul\":1122:1128   */\n      dup2\n        /* \"#utility.yul\":1109:1129   */\n      calldataload\n        /* \"#utility.yul\":1148:1152   */\n      0x20\n        /* \"#utility.yul\":1171:1189   */\n      0xffffffffffffffff\n        /* \"#utility.yul\":1208:1210   */\n      dup1\n        /* \"#utility.yul\":1204:1206   */\n      dup4\n        /* \"#utility.yul\":1201:1211   */\n      gt\n        /* \"#utility.yul\":1198:1234   */\n      iszero\n      tag_164\n      jumpi\n        /* \"#utility.yul\":1214:1232   */\n      tag_164\n      tag_142\n      jump\t// in\n    tag_164:\n        /* \"#utility.yul\":1260:1262   */\n      dup3\n        /* \"#utility.yul\":1257:1258   */\n      0x05\n        /* \"#utility.yul\":1253:1263   */\n      shl\n        /* \"#utility.yul\":1283:1311   */\n      tag_165\n        /* \"#utility.yul\":1307:1309   */\n      dup4\n        /* \"#utility.yul\":1303:1305   */\n      dup3\n        /* \"#utility.yul\":1299:1310   */\n      add\n        /* \"#utility.yul\":1283:1311   */\n      tag_143\n      jump\t// in\n    tag_165:\n        /* \"#utility.yul\":1345:1360   */\n      swap4\n      dup5\n      mstore\n        /* \"#utility.yul\":1415:1430   */\n      dup6\n      dup2\n      add\n        /* \"#utility.yul\":1411:1435   */\n      dup4\n      add\n      swap4\n        /* \"#utility.yul\":1376:1388   */\n      dup4\n      dup2\n      add\n      swap1\n        /* \"#utility.yul\":1447:1462   */\n      dup9\n      dup7\n      gt\n        /* \"#utility.yul\":1444:1479   */\n      iszero\n      tag_166\n      jumpi\n        /* \"#utility.yul\":1475:1476   */\n      0x00\n        /* \"#utility.yul\":1472:1473   */\n      dup1\n        /* \"#utility.yul\":1465:1477   */\n      revert\n        /* \"#utility.yul\":1444:1479   */\n    tag_166:\n        /* \"#utility.yul\":1511:1513   */\n      dup5\n        /* \"#utility.yul\":1503:1509   */\n      dup9\n        /* \"#utility.yul\":1499:1514   */\n      add\n        /* \"#utility.yul\":1488:1514   */\n      swap3\n      pop\n        /* \"#utility.yul\":1523:1806   */\n    tag_167:\n        /* \"#utility.yul\":1539:1545   */\n      dup6\n        /* \"#utility.yul\":1534:1537   */\n      dup4\n        /* \"#utility.yul\":1531:1546   */\n      lt\n        /* \"#utility.yul\":1523:1806   */\n      iszero\n      tag_169\n      jumpi\n        /* \"#utility.yul\":1625:1628   */\n      dup3\n        /* \"#utility.yul\":1612:1629   */\n      calldataload\n        /* \"#utility.yul\":1661:1663   */\n      dup5\n        /* \"#utility.yul\":1648:1659   */\n      dup2\n        /* \"#utility.yul\":1645:1664   */\n      gt\n        /* \"#utility.yul\":1642:1681   */\n      iszero\n      tag_170\n      jumpi\n        /* \"#utility.yul\":1677:1678   */\n      0x00\n        /* \"#utility.yul\":1674:1675   */\n      dup1\n        /* \"#utility.yul\":1667:1679   */\n      revert\n        /* \"#utility.yul\":1642:1681   */\n    tag_170:\n        /* \"#utility.yul\":1706:1763   */\n      tag_171\n        /* \"#utility.yul\":1759:1762   */\n      dup11\n        /* \"#utility.yul\":1754:1756   */\n      dup8\n        /* \"#utility.yul\":1740:1751   */\n      dup4\n        /* \"#utility.yul\":1732:1738   */\n      dup13\n        /* \"#utility.yul\":1728:1752   */\n      add\n        /* \"#utility.yul\":1724:1757   */\n      add\n        /* \"#utility.yul\":1706:1763   */\n      tag_144\n      jump\t// in\n    tag_171:\n        /* \"#utility.yul\":1694:1764   */\n      dup4\n      mstore\n      pop\n        /* \"#utility.yul\":1556:1568   */\n      swap2\n      dup5\n      add\n      swap2\n        /* \"#utility.yul\":1784:1796   */\n      swap1\n      dup5\n      add\n      swap1\n        /* \"#utility.yul\":1523:1806   */\n      jump(tag_167)\n    tag_169:\n        /* \"#utility.yul\":1824:1829   */\n      swap9\n        /* \"#utility.yul\":962:1835   */\n      swap8\n      pop\n      pop\n      pop\n      pop\n      pop\n      pop\n      pop\n      pop\n      jump\t// out\n        /* \"#utility.yul\":1840:2265   */\n    tag_14:\n        /* \"#utility.yul\":1943:1949   */\n      0x00\n        /* \"#utility.yul\":1951:1957   */\n      dup1\n        /* \"#utility.yul\":2004:2006   */\n      0x40\n        /* \"#utility.yul\":1992:2001   */\n      dup4\n        /* \"#utility.yul\":1983:1990   */\n      dup6\n        /* \"#utility.yul\":1979:2002   */\n      sub\n        /* \"#utility.yul\":1975:2007   */\n      slt\n        /* \"#utility.yul\":1972:2024   */\n      iszero\n      tag_173\n      jumpi\n        /* \"#utility.yul\":2020:2021   */\n      0x00\n        /* \"#utility.yul\":2017:2018   */\n      dup1\n        /* \"#utility.yul\":2010:2022   */\n      revert\n        /* \"#utility.yul\":1972:2024   */\n    tag_173:\n        /* \"#utility.yul\":2056:2065   */\n      dup3\n        /* \"#utility.yul\":2043:2066   */\n      calldataload\n        /* \"#utility.yul\":2033:2066   */\n      swap2\n      pop\n        /* \"#utility.yul\":2117:2119   */\n      0x20\n        /* \"#utility.yul\":2106:2115   */\n      dup4\n        /* \"#utility.yul\":2102:2120   */\n      add\n        /* \"#utility.yul\":2089:2121   */\n      calldataload\n        /* \"#utility.yul\":2144:2162   */\n      0xffffffffffffffff\n        /* \"#utility.yul\":2136:2142   */\n      dup2\n        /* \"#utility.yul\":2133:2163   */\n      gt\n        /* \"#utility.yul\":2130:2180   */\n      iszero\n      tag_174\n      jumpi\n        /* \"#utility.yul\":2176:2177   */\n      0x00\n        /* \"#utility.yul\":2173:2174   */\n      dup1\n        /* \"#utility.yul\":2166:2178   */\n      revert\n        /* \"#utility.yul\":2130:2180   */\n    tag_174:\n        /* \"#utility.yul\":2199:2259   */\n      tag_175\n        /* \"#utility.yul\":2251:2258   */\n      dup6\n        /* \"#utility.yul\":2242:2248   */\n      dup3\n        /* \"#utility.yul\":2231:2240   */\n      dup7\n        /* \"#utility.yul\":2227:2249   */\n      add\n        /* \"#utility.yul\":2199:2259   */\n      tag_145\n      jump\t// in\n    tag_175:\n        /* \"#utility.yul\":2189:2259   */\n      swap2\n      pop\n      pop\n        /* \"#utility.yul\":1840:2265   */\n      swap3\n      pop\n      swap3\n      swap1\n      pop\n      jump\t// out\n        /* \"#utility.yul\":2452:2632   */\n    tag_20:\n        /* \"#utility.yul\":2511:2517   */\n      0x00\n        /* \"#utility.yul\":2564:2566   */\n      0x20\n        /* \"#utility.yul\":2552:2561   */\n      dup3\n        /* \"#utility.yul\":2543:2550   */\n      dup5\n        /* \"#utility.yul\":2539:2562   */\n      sub\n        /* \"#utility.yul\":2535:2567   */\n      slt\n        /* \"#utility.yul\":2532:2584   */\n      iszero\n      tag_178\n      jumpi\n        /* \"#utility.yul\":2580:2581   */\n      0x00\n        /* \"#utility.yul\":2577:2578   */\n      dup1\n        /* \"#utility.yul\":2570:2582   */\n      revert\n        /* \"#utility.yul\":2532:2584   */\n    tag_178:\n      pop\n        /* \"#utility.yul\":2603:2626   */\n      calldataload\n      swap2\n        /* \"#utility.yul\":2452:2632   */\n      swap1\n      pop\n      jump\t// out\n        /* \"#utility.yul\":2637:3747   */\n    tag_23:\n        /* \"#utility.yul\":2827:2831   */\n      0x00\n        /* \"#utility.yul\":2875:2877   */\n      0x40\n        /* \"#utility.yul\":2864:2873   */\n      dup3\n        /* \"#utility.yul\":2860:2878   */\n      add\n        /* \"#utility.yul\":2905:2911   */\n      dup5\n        /* \"#utility.yul\":2894:2903   */\n      dup4\n        /* \"#utility.yul\":2887:2912   */\n      mstore\n        /* \"#utility.yul\":2931:2933   */\n      0x20\n        /* \"#utility.yul\":2969:2971   */\n      0x40\n        /* \"#utility.yul\":2964:2966   */\n      dup2\n        /* \"#utility.yul\":2953:2962   */\n      dup6\n        /* \"#utility.yul\":2949:2967   */\n      add\n        /* \"#utility.yul\":2942:2972   */\n      mstore\n        /* \"#utility.yul\":2992:2998   */\n      dup2\n        /* \"#utility.yul\":3027:3033   */\n      dup6\n        /* \"#utility.yul\":3021:3034   */\n      mload\n        /* \"#utility.yul\":3058:3064   */\n      dup1\n        /* \"#utility.yul\":3050:3056   */\n      dup5\n        /* \"#utility.yul\":3043:3065   */\n      mstore\n        /* \"#utility.yul\":3096:3098   */\n      0x60\n        /* \"#utility.yul\":3085:3094   */\n      dup7\n        /* \"#utility.yul\":3081:3099   */\n      add\n        /* \"#utility.yul\":3074:3099   */\n      swap2\n      pop\n        /* \"#utility.yul\":3158:3160   */\n      0x60\n        /* \"#utility.yul\":3148:3154   */\n      dup2\n        /* \"#utility.yul\":3145:3146   */\n      0x05\n        /* \"#utility.yul\":3141:3155   */\n      shl\n        /* \"#utility.yul\":3130:3139   */\n      dup8\n        /* \"#utility.yul\":3126:3156   */\n      add\n        /* \"#utility.yul\":3122:3161   */\n      add\n        /* \"#utility.yul\":3108:3161   */\n      swap4\n      pop\n        /* \"#utility.yul\":3196:3198   */\n      dup3\n        /* \"#utility.yul\":3188:3194   */\n      dup8\n        /* \"#utility.yul\":3184:3199   */\n      add\n        /* \"#utility.yul\":3217:3218   */\n      0x00\n        /* \"#utility.yul\":3227:3718   */\n    tag_180:\n        /* \"#utility.yul\":3241:3247   */\n      dup3\n        /* \"#utility.yul\":3238:3239   */\n      dup2\n        /* \"#utility.yul\":3235:3248   */\n      lt\n        /* \"#utility.yul\":3227:3718   */\n      iszero\n      tag_182\n      jumpi\n        /* \"#utility.yul\":3306:3328   */\n      dup8\n      dup7\n      sub\n      not(0x5f)\n        /* \"#utility.yul\":3302:3338   */\n      add\n        /* \"#utility.yul\":3290:3339   */\n      dup5\n      mstore\n        /* \"#utility.yul\":3362:3375   */\n      dup2\n      mload\n        /* \"#utility.yul\":3404:3413   */\n      dup1\n      mload\n        /* \"#utility.yul\":3426:3450   */\n      dup1\n      dup9\n      mstore\n        /* \"#utility.yul\":3404:3413   */\n      dup1\n        /* \"#utility.yul\":3486:3497   */\n      dup8\n      dup4\n      add\n        /* \"#utility.yul\":3469:3484   */\n      dup9\n      dup11\n      add\n        /* \"#utility.yul\":3463:3508   */\n      mcopy\n        /* \"#utility.yul\":3560:3561   */\n      0x00\n        /* \"#utility.yul\":3532:3553   */\n      dup9\n      dup3\n      add\n        /* \"#utility.yul\":3528:3558   */\n      dup9\n      add\n        /* \"#utility.yul\":3521:3562   */\n      mstore\n        /* \"#utility.yul\":3628:3630   */\n      0x1f\n        /* \"#utility.yul\":3605:3622   */\n      add\n      not(0x1f)\n        /* \"#utility.yul\":3601:3632   */\n      and\n        /* \"#utility.yul\":3589:3633   */\n      swap1\n      swap7\n      add\n        /* \"#utility.yul\":3585:3638   */\n      dup6\n      add\n      swap6\n      pop\n        /* \"#utility.yul\":3696:3708   */\n      swap3\n      dup5\n      add\n      swap3\n        /* \"#utility.yul\":3661:3676   */\n      swap1\n      dup5\n      add\n      swap1\n        /* \"#utility.yul\":3263:3264   */\n      0x01\n        /* \"#utility.yul\":3256:3265   */\n      add\n        /* \"#utility.yul\":3227:3718   */\n      jump(tag_180)\n    tag_182:\n      pop\n        /* \"#utility.yul\":3735:3741   */\n      swap4\n      swap9\n        /* \"#utility.yul\":2637:3747   */\n      swap8\n      pop\n      pop\n      pop\n      pop\n      pop\n      pop\n      pop\n      pop\n      jump\t// out\n        /* \"#utility.yul\":3752:4109   */\n    tag_29:\n        /* \"#utility.yul\":3846:3852   */\n      0x00\n        /* \"#utility.yul\":3899:3901   */\n      0x20\n        /* \"#utility.yul\":3887:3896   */\n      dup3\n        /* \"#utility.yul\":3878:3885   */\n      dup5\n        /* \"#utility.yul\":3874:3897   */\n      sub\n        /* \"#utility.yul\":3870:3902   */\n      slt\n        /* \"#utility.yul\":3867:3919   */\n      iszero\n      tag_184\n      jumpi\n        /* \"#utility.yul\":3915:3916   */\n      0x00\n        /* \"#utility.yul\":3912:3913   */\n      dup1\n        /* \"#utility.yul\":3905:3917   */\n      revert\n        /* \"#utility.yul\":3867:3919   */\n    tag_184:\n        /* \"#utility.yul\":3955:3964   */\n      dup2\n        /* \"#utility.yul\":3942:3965   */\n      calldataload\n        /* \"#utility.yul\":3988:4006   */\n      0xffffffffffffffff\n        /* \"#utility.yul\":3980:3986   */\n      dup2\n        /* \"#utility.yul\":3977:4007   */\n      gt\n        /* \"#utility.yul\":3974:4024   */\n      iszero\n      tag_185\n      jumpi\n        /* \"#utility.yul\":4020:4021   */\n      0x00\n        /* \"#utility.yul\":4017:4018   */\n      dup1\n        /* \"#utility.yul\":4010:4022   */\n      revert\n        /* \"#utility.yul\":3974:4024   */\n    tag_185:\n        /* \"#utility.yul\":4043:4103   */\n      tag_186\n        /* \"#utility.yul\":4095:4102   */\n      dup5\n        /* \"#utility.yul\":4086:4092   */\n      dup3\n        /* \"#utility.yul\":4075:4084   */\n      dup6\n        /* \"#utility.yul\":4071:4093   */\n      add\n        /* \"#utility.yul\":4043:4103   */\n      tag_145\n      jump\t// in\n    tag_186:\n        /* \"#utility.yul\":4033:4103   */\n      swap5\n        /* \"#utility.yul\":3752:4109   */\n      swap4\n      pop\n      pop\n      pop\n      pop\n      jump\t// out\n        /* \"#utility.yul\":4114:4657   */\n    tag_40:\n        /* \"#utility.yul\":4202:4208   */\n      0x00\n        /* \"#utility.yul\":4210:4216   */\n      dup1\n        /* \"#utility.yul\":4263:4265   */\n      0x40\n        /* \"#utility.yul\":4251:4260   */\n      dup4\n        /* \"#utility.yul\":4242:4249   */\n      dup6\n        /* \"#utility.yul\":4238:4261   */\n      sub\n        /* \"#utility.yul\":4234:4266   */\n      slt\n        /* \"#utility.yul\":4231:4283   */\n      iszero\n      tag_188\n      jumpi\n        /* \"#utility.yul\":4279:4280   */\n      0x00\n        /* \"#utility.yul\":4276:4277   */\n      dup1\n        /* \"#utility.yul\":4269:4281   */\n      revert\n        /* \"#utility.yul\":4231:4283   */\n    tag_188:\n        /* \"#utility.yul\":4319:4328   */\n      dup3\n        /* \"#utility.yul\":4306:4329   */\n      calldataload\n        /* \"#utility.yul\":4348:4366   */\n      0xffffffffffffffff\n        /* \"#utility.yul\":4389:4391   */\n      dup1\n        /* \"#utility.yul\":4381:4387   */\n      dup3\n        /* \"#utility.yul\":4378:4392   */\n      gt\n        /* \"#utility.yul\":4375:4409   */\n      iszero\n      tag_189\n      jumpi\n        /* \"#utility.yul\":4405:4406   */\n      0x00\n        /* \"#utility.yul\":4402:4403   */\n      dup1\n        /* \"#utility.yul\":4395:4407   */\n      revert\n        /* \"#utility.yul\":4375:4409   */\n    tag_189:\n        /* \"#utility.yul\":4428:4478   */\n      tag_190\n        /* \"#utility.yul\":4470:4477   */\n      dup7\n        /* \"#utility.yul\":4461:4467   */\n      dup4\n        /* \"#utility.yul\":4450:4459   */\n      dup8\n        /* \"#utility.yul\":4446:4468   */\n      add\n        /* \"#utility.yul\":4428:4478   */\n      tag_144\n      jump\t// in\n    tag_190:\n        /* \"#utility.yul\":4418:4478   */\n      swap4\n      pop\n        /* \"#utility.yul\":4531:4533   */\n      0x20\n        /* \"#utility.yul\":4520:4529   */\n      dup6\n        /* \"#utility.yul\":4516:4534   */\n      add\n        /* \"#utility.yul\":4503:4535   */\n      calldataload\n        /* \"#utility.yul\":4487:4535   */\n      swap2\n      pop\n        /* \"#utility.yul\":4560:4562   */\n      dup1\n        /* \"#utility.yul\":4550:4558   */\n      dup3\n        /* \"#utility.yul\":4547:4563   */\n      gt\n        /* \"#utility.yul\":4544:4580   */\n      iszero\n      tag_191\n      jumpi\n        /* \"#utility.yul\":4576:4577   */\n      0x00\n        /* \"#utility.yul\":4573:4574   */\n      dup1\n        /* \"#utility.yul\":4566:4578   */\n      revert\n        /* \"#utility.yul\":4544:4580   */\n    tag_191:\n      pop\n        /* \"#utility.yul\":4599:4651   */\n      tag_175\n        /* \"#utility.yul\":4643:4650   */\n      dup6\n        /* \"#utility.yul\":4632:4640   */\n      dup3\n        /* \"#utility.yul\":4621:4630   */\n      dup7\n        /* \"#utility.yul\":4617:4641   */\n      add\n        /* \"#utility.yul\":4599:4651   */\n      tag_144\n      jump\t// in\n        /* \"#utility.yul\":5003:5383   */\n    tag_54:\n        /* \"#utility.yul\":5082:5083   */\n      0x01\n        /* \"#utility.yul\":5078:5090   */\n      dup2\n      dup2\n      shr\n      swap1\n        /* \"#utility.yul\":5125:5137   */\n      dup3\n      and\n      dup1\n        /* \"#utility.yul\":5146:5207   */\n      tag_195\n      jumpi\n        /* \"#utility.yul\":5200:5204   */\n      0x7f\n        /* \"#utility.yul\":5192:5198   */\n      dup3\n        /* \"#utility.yul\":5188:5205   */\n      and\n        /* \"#utility.yul\":5178:5205   */\n      swap2\n      pop\n        /* \"#utility.yul\":5146:5207   */\n    tag_195:\n        /* \"#utility.yul\":5253:5255   */\n      0x20\n        /* \"#utility.yul\":5245:5251   */\n      dup3\n        /* \"#utility.yul\":5242:5256   */\n      lt\n        /* \"#utility.yul\":5222:5240   */\n      dup2\n        /* \"#utility.yul\":5219:5257   */\n      sub\n        /* \"#utility.yul\":5216:5377   */\n      tag_196\n      jumpi\n        /* \"#utility.yul\":5299:5309   */\n      0x4e487b71\n        /* \"#utility.yul\":5294:5297   */\n      0xe0\n        /* \"#utility.yul\":5290:5310   */\n      shl\n        /* \"#utility.yul\":5287:5288   */\n      0x00\n        /* \"#utility.yul\":5280:5311   */\n      mstore\n        /* \"#utility.yul\":5334:5338   */\n      0x22\n        /* \"#utility.yul\":5331:5332   */\n      0x04\n        /* \"#utility.yul\":5324:5339   */\n      mstore\n        /* \"#utility.yul\":5362:5366   */\n      0x24\n        /* \"#utility.yul\":5359:5360   */\n      0x00\n        /* \"#utility.yul\":5352:5367   */\n      revert\n        /* \"#utility.yul\":5216:5377   */\n    tag_196:\n      pop\n        /* \"#utility.yul\":5003:5383   */\n      swap2\n      swap1\n      pop\n      jump\t// out\n        /* \"#utility.yul\":5792:5919   */\n    tag_68:\n        /* \"#utility.yul\":5853:5863   */\n      0x4e487b71\n        /* \"#utility.yul\":5848:5851   */\n      0xe0\n        /* \"#utility.yul\":5844:5864   */\n      shl\n        /* \"#utility.yul\":5841:5842   */\n      0x00\n        /* \"#utility.yul\":5834:5865   */\n      mstore\n        /* \"#utility.yul\":5884:5888   */\n      0x32\n        /* \"#utility.yul\":5881:5882   */\n      0x04\n        /* \"#utility.yul\":5874:5889   */\n      mstore\n        /* \"#utility.yul\":5908:5912   */\n      0x24\n        /* \"#utility.yul\":5905:5906   */\n      0x00\n        /* \"#utility.yul\":5898:5913   */\n      revert\n        /* \"#utility.yul\":5924:6051   */\n    tag_146:\n        /* \"#utility.yul\":5985:5995   */\n      0x4e487b71\n        /* \"#utility.yul\":5980:5983   */\n      0xe0\n        /* \"#utility.yul\":5976:5996   */\n      shl\n        /* \"#utility.yul\":5973:5974   */\n      0x00\n        /* \"#utility.yul\":5966:5997   */\n      mstore\n        /* \"#utility.yul\":6016:6020   */\n      0x11\n        /* \"#utility.yul\":6013:6014   */\n      0x04\n        /* \"#utility.yul\":6006:6021   */\n      mstore\n        /* \"#utility.yul\":6040:6044   */\n      0x24\n        /* \"#utility.yul\":6037:6038   */\n      0x00\n        /* \"#utility.yul\":6030:6045   */\n      revert\n        /* \"#utility.yul\":6056:6191   */\n    tag_73:\n        /* \"#utility.yul\":6095:6098   */\n      0x00\n        /* \"#utility.yul\":6116:6133   */\n      0x01\n      dup3\n      add\n        /* \"#utility.yul\":6113:6156   */\n      tag_202\n      jumpi\n        /* \"#utility.yul\":6136:6154   */\n      tag_202\n      tag_146\n      jump\t// in\n    tag_202:\n      pop\n        /* \"#utility.yul\":6183:6184   */\n      0x01\n        /* \"#utility.yul\":6172:6185   */\n      add\n      swap1\n        /* \"#utility.yul\":6056:6191   */\n      jump\t// out\n        /* \"#utility.yul\":6974:7102   */\n    tag_110:\n        /* \"#utility.yul\":7041:7050   */\n      dup2\n      dup2\n      sub\n        /* \"#utility.yul\":7062:7073   */\n      dup2\n      dup2\n      gt\n        /* \"#utility.yul\":7059:7096   */\n      iszero\n      tag_46\n      jumpi\n        /* \"#utility.yul\":7076:7094   */\n      tag_46\n      tag_146\n      jump\t// in\n        /* \"#utility.yul\":7594:8112   */\n    tag_148:\n        /* \"#utility.yul\":7696:7698   */\n      0x1f\n        /* \"#utility.yul\":7691:7694   */\n      dup3\n        /* \"#utility.yul\":7688:7699   */\n      gt\n        /* \"#utility.yul\":7685:8106   */\n      iszero\n      tag_211\n      jumpi\n        /* \"#utility.yul\":7732:7737   */\n      dup1\n        /* \"#utility.yul\":7729:7730   */\n      0x00\n        /* \"#utility.yul\":7722:7738   */\n      mstore\n        /* \"#utility.yul\":7776:7780   */\n      0x20\n        /* \"#utility.yul\":7773:7774   */\n      0x00\n        /* \"#utility.yul\":7763:7781   */\n      keccak256\n        /* \"#utility.yul\":7846:7848   */\n      0x1f\n        /* \"#utility.yul\":7834:7844   */\n      dup5\n        /* \"#utility.yul\":7830:7849   */\n      add\n        /* \"#utility.yul\":7827:7828   */\n      0x05\n        /* \"#utility.yul\":7823:7850   */\n      shr\n        /* \"#utility.yul\":7817:7821   */\n      dup2\n        /* \"#utility.yul\":7813:7851   */\n      add\n        /* \"#utility.yul\":7882:7886   */\n      0x20\n        /* \"#utility.yul\":7870:7880   */\n      dup6\n        /* \"#utility.yul\":7867:7887   */\n      lt\n        /* \"#utility.yul\":7864:7911   */\n      iszero\n      tag_212\n      jumpi\n      pop\n        /* \"#utility.yul\":7905:7909   */\n      dup1\n        /* \"#utility.yul\":7864:7911   */\n    tag_212:\n        /* \"#utility.yul\":7960:7962   */\n      0x1f\n        /* \"#utility.yul\":7955:7958   */\n      dup5\n        /* \"#utility.yul\":7951:7963   */\n      add\n        /* \"#utility.yul\":7948:7949   */\n      0x05\n        /* \"#utility.yul\":7944:7964   */\n      shr\n        /* \"#utility.yul\":7938:7942   */\n      dup3\n        /* \"#utility.yul\":7934:7965   */\n      add\n        /* \"#utility.yul\":7924:7965   */\n      swap2\n      pop\n        /* \"#utility.yul\":8015:8096   */\n    tag_213:\n        /* \"#utility.yul\":8033:8035   */\n      dup2\n        /* \"#utility.yul\":8026:8031   */\n      dup2\n        /* \"#utility.yul\":8023:8036   */\n      lt\n        /* \"#utility.yul\":8015:8096   */\n      iszero\n      tag_215\n      jumpi\n        /* \"#utility.yul\":8092:8093   */\n      0x00\n        /* \"#utility.yul\":8078:8094   */\n      dup2\n      sstore\n        /* \"#utility.yul\":8059:8060   */\n      0x01\n        /* \"#utility.yul\":8048:8061   */\n      add\n        /* \"#utility.yul\":8015:8096   */\n      jump(tag_213)\n    tag_215:\n        /* \"#utility.yul\":8019:8022   */\n      pop\n      pop\n        /* \"#utility.yul\":7685:8106   */\n    tag_211:\n        /* \"#utility.yul\":7594:8112   */\n      pop\n      pop\n      pop\n      jump\t// out\n        /* \"#utility.yul\":8288:9633   */\n    tag_128:\n        /* \"#utility.yul\":8414:8417   */\n      dup2\n        /* \"#utility.yul\":8408:8418   */\n      mload\n        /* \"#utility.yul\":8441:8459   */\n      0xffffffffffffffff\n        /* \"#utility.yul\":8433:8439   */\n      dup2\n        /* \"#utility.yul\":8430:8460   */\n      gt\n        /* \"#utility.yul\":8427:8483   */\n      iszero\n      tag_219\n      jumpi\n        /* \"#utility.yul\":8463:8481   */\n      tag_219\n      tag_142\n      jump\t// in\n    tag_219:\n        /* \"#utility.yul\":8492:8589   */\n      tag_220\n        /* \"#utility.yul\":8582:8588   */\n      dup2\n        /* \"#utility.yul\":8542:8580   */\n      tag_221\n        /* \"#utility.yul\":8574:8578   */\n      dup5\n        /* \"#utility.yul\":8568:8579   */\n      sload\n        /* \"#utility.yul\":8542:8580   */\n      tag_54\n      jump\t// in\n    tag_221:\n        /* \"#utility.yul\":8536:8540   */\n      dup5\n        /* \"#utility.yul\":8492:8589   */\n      tag_148\n      jump\t// in\n    tag_220:\n        /* \"#utility.yul\":8644:8648   */\n      0x20\n      dup1\n        /* \"#utility.yul\":8701:8703   */\n      0x1f\n        /* \"#utility.yul\":8690:8704   */\n      dup4\n      gt\n        /* \"#utility.yul\":8718:8719   */\n      0x01\n        /* \"#utility.yul\":8713:9376   */\n      dup2\n      eq\n      tag_223\n      jumpi\n        /* \"#utility.yul\":9420:9421   */\n      0x00\n        /* \"#utility.yul\":9437:9443   */\n      dup5\n        /* \"#utility.yul\":9434:9523   */\n      iszero\n      tag_224\n      jumpi\n      pop\n        /* \"#utility.yul\":9489:9508   */\n      dup6\n      dup4\n      add\n        /* \"#utility.yul\":9483:9509   */\n      mload\n        /* \"#utility.yul\":9434:9523   */\n    tag_224:\n      not(0x00)\n        /* \"#utility.yul\":8245:8246   */\n      0x03\n        /* \"#utility.yul\":8241:8252   */\n      dup7\n      swap1\n      shl\n        /* \"#utility.yul\":8237:8261   */\n      shr\n        /* \"#utility.yul\":8233:8262   */\n      not\n        /* \"#utility.yul\":8223:8263   */\n      and\n        /* \"#utility.yul\":8269:8270   */\n      0x01\n        /* \"#utility.yul\":8265:8276   */\n      dup6\n      swap1\n      shl\n        /* \"#utility.yul\":8220:8277   */\n      or\n        /* \"#utility.yul\":9536:9617   */\n      dup6\n      sstore\n        /* \"#utility.yul\":8683:9627   */\n      jump(tag_222)\n        /* \"#utility.yul\":8713:9376   */\n    tag_223:\n        /* \"#utility.yul\":7541:7542   */\n      0x00\n        /* \"#utility.yul\":7534:7548   */\n      dup6\n      dup2\n      mstore\n        /* \"#utility.yul\":7578:7582   */\n      0x20\n        /* \"#utility.yul\":7565:7583   */\n      dup2\n      keccak256\n      not(0x1f)\n        /* \"#utility.yul\":8749:8769   */\n      dup7\n      and\n      swap2\n        /* \"#utility.yul\":8867:9103   */\n    tag_227:\n        /* \"#utility.yul\":8881:8888   */\n      dup3\n        /* \"#utility.yul\":8878:8879   */\n      dup2\n        /* \"#utility.yul\":8875:8889   */\n      lt\n        /* \"#utility.yul\":8867:9103   */\n      iszero\n      tag_229\n      jumpi\n        /* \"#utility.yul\":8970:8989   */\n      dup9\n      dup7\n      add\n        /* \"#utility.yul\":8964:8990   */\n      mload\n        /* \"#utility.yul\":8949:8991   */\n      dup3\n      sstore\n        /* \"#utility.yul\":9062:9089   */\n      swap5\n      dup5\n      add\n      swap5\n        /* \"#utility.yul\":9030:9031   */\n      0x01\n        /* \"#utility.yul\":9018:9032   */\n      swap1\n      swap2\n      add\n      swap1\n        /* \"#utility.yul\":8897:8916   */\n      dup5\n      add\n        /* \"#utility.yul\":8867:9103   */\n      jump(tag_227)\n    tag_229:\n        /* \"#utility.yul\":8871:8874   */\n      pop\n        /* \"#utility.yul\":9131:9137   */\n      dup6\n        /* \"#utility.yul\":9122:9129   */\n      dup3\n        /* \"#utility.yul\":9119:9138   */\n      lt\n        /* \"#utility.yul\":9116:9317   */\n      iszero\n      tag_230\n      jumpi\n        /* \"#utility.yul\":9192:9211   */\n      dup8\n      dup6\n      add\n        /* \"#utility.yul\":9186:9212   */\n      mload\n      not(0x00)\n        /* \"#utility.yul\":9275:9276   */\n      0x03\n        /* \"#utility.yul\":9271:9285   */\n      dup9\n      swap1\n      shl\n        /* \"#utility.yul\":9287:9290   */\n      0xf8\n        /* \"#utility.yul\":9267:9291   */\n      and\n        /* \"#utility.yul\":9263:9300   */\n      shr\n        /* \"#utility.yul\":9259:9301   */\n      not\n        /* \"#utility.yul\":9244:9302   */\n      and\n        /* \"#utility.yul\":9229:9303   */\n      dup2\n      sstore\n        /* \"#utility.yul\":9116:9317   */\n    tag_230:\n      pop\n      pop\n        /* \"#utility.yul\":9363:9364   */\n      0x01\n        /* \"#utility.yul\":9354:9360   */\n      dup5\n        /* \"#utility.yul\":9351:9352   */\n      0x01\n        /* \"#utility.yul\":9347:9361   */\n      shl\n        /* \"#utility.yul\":9343:9365   */\n      add\n        /* \"#utility.yul\":9337:9341   */\n      dup6\n        /* \"#utility.yul\":9330:9366   */\n      sstore\n        /* \"#utility.yul\":8683:9627   */\n    tag_222:\n      pop\n      pop\n      pop\n      pop\n        /* \"#utility.yul\":8288:9633   */\n      pop\n      pop\n      jump\t// out\n\n    auxdata: 0xa2646970667358221220a2a4b7f6753343a7858984119e3d46d907f843e98d06ff6ff59f9e24925aa18e64736f6c63430008190033\n}\n",
    "bytecode": {
      "linkReferences": {},
      "object": "608060405260018055600a6002553480156017575f80fd5b50610c5d806100255f395ff3fe608060405234801561000f575f80fd5b5060043610610085575f3560e01c80638fb5548f116100585780638fb5548f146100ee578063a4458dc41461010d578063be02318d14610115578063c172758314610128575f80fd5b8063303c9fd314610089578063606db617146100af57806361b8ce8c146100d05780638f781838146100d9575b5f80fd5b61009c610097366004610926565b610131565b6040519081526020015b60405180910390f35b6100c26100bd36600461096a565b610344565b6040516100a6929190610981565b61009c60015481565b6100ec6100e7366004610a00565b610487565b005b61009c6100fc36600461096a565b5f6020819052908152604090205481565b61009c610610565b61009c610123366004610a3a565b610624565b61009c60025481565b5f60015483106101775760405162461bcd60e51b815260206004820152600c60248201526b1251081b9bdd08199bdd5b9960a21b60448201526064015b60405180910390fd5b5f8381526020818152604080832081518083018352815481526001820180548451818702810187019095528085529194929385840193909290879084015b8282101561025d578382905f5260205f200180546101d290610a90565b80601f01602080910402602001604051908101604052809291908181526020018280546101fe90610a90565b80156102495780601f1061022057610100808354040283529160200191610249565b820191905f5260205f20905b81548152906001019060200180831161022c57829003601f168201915b5050505050815260200190600101906101b5565b5050509152505083516020820151519192509081146102ca5760405162461bcd60e51b815260206004820152602360248201527f4861736820617272617973206d757374206265206f6620657175616c206c656e6044820152620cee8d60eb1b606482015260840161016e565b5f92505f5b8181101561033a575f6103188683815181106102ed576102ed610ac8565b60200260200101518560200151848151811061030b5761030b610ac8565b6020026020010151610624565b90506002548111610331578461032d81610af0565b9550505b506001016102cf565b5050505b92915050565b5f606060015483106103875760405162461bcd60e51b815260206004820152600c60248201526b1251081b9bdd08199bdd5b9960a21b604482015260640161016e565b5f8381526020818152604080832081518083018352815481526001820180548451818702810187019095528085529194929385840193909290879084015b8282101561046d578382905f5260205f200180546103e290610a90565b80601f016020809104026020016040519081016040528092919081815260200182805461040e90610a90565b80156104595780601f1061043057610100808354040283529160200191610459565b820191905f5260205f20905b81548152906001019060200180831161043c57829003601f168201915b5050505050815260200190600101906103c5565b505050915250508051602090910151909590945092505050565b80516014146104d85760405162461bcd60e51b815260206004820152601e60248201527f4d7573742070726f766964652065786163746c79203230206861736865730000604482015260640161016e565b60015b6001548110156105cd575f6104ef82610344565b9150600190505f5b845181101561054e575f61053086838151811061051657610516610ac8565b602002602001015185848151811061030b5761030b610ac8565b9050600254811115610545575f92505061054e565b506001016104f7565b5080156105c35760405162461bcd60e51b815260206004820152603260248201527f5468657365206861736865732061726520746f6f2073696d696c617220746f2060448201527f616e206578697374696e6720656e7472792e0000000000000000000000000000606482015260840161016e565b50506001016104db565b50600180545f81815260208181526040909120918255835191926105f7929084019185019061071d565b5060018054905f61060783610af0565b91905055505050565b5f6001805461061f9190610b08565b905090565b5f81518351146106765760405162461bcd60e51b815260206004820181905260248201527f486173686573206d7573742068617665207468652073616d65206c656e677468604482015260640161016e565b505f805b83518110156107165782818151811061069557610695610ac8565b602001015160f81c60f81b7effffffffffffffffffffffffffffffffffffffffffffffffffffffffffffff19168482815181106106d4576106d4610ac8565b01602001517fff00000000000000000000000000000000000000000000000000000000000000161461070e578161070a81610af0565b9250505b60010161067a565b5092915050565b828054828255905f5260205f20908101928215610761579160200282015b8281111561076157825182906107519082610b67565b509160200191906001019061073b565b5061076d929150610771565b5090565b8082111561076d575f610784828261078d565b50600101610771565b50805461079990610a90565b5f825580601f106107a8575050565b601f0160209004905f5260205f20908101906107c491906107c7565b50565b5b8082111561076d575f81556001016107c8565b634e487b7160e01b5f52604160045260245ffd5b604051601f8201601f1916810167ffffffffffffffff81118282101715610818576108186107db565b604052919050565b5f82601f83011261082f575f80fd5b813567ffffffffffffffff811115610849576108496107db565b61085c601f8201601f19166020016107ef565b818152846020838601011115610870575f80fd5b816020850160208301375f918101602001919091529392505050565b5f82601f83011261089b575f80fd5b8135602067ffffffffffffffff808311156108b8576108b86107db565b8260051b6108c78382016107ef565b93845285810183019383810190888611156108e0575f80fd5b84880192505b8583101561091a578235848111156108fc575f80fd5b61090a8a87838c0101610820565b83525091840191908401906108e6565b98975050505050505050565b5f8060408385031215610937575f80fd5b82359150602083013567ffffffffffffffff811115610954575f80fd5b6109608582860161088c565b9150509250929050565b5f6020828403121561097a575f80fd5b5035919050565b5f60408201848352602060408185015281855180845260608601915060608160051b87010193508287015f5b828110156109f257878603605f190184528151805180885280878301888a015e5f888201880152601f01601f19169096018501955092840192908401906001016109ad565b509398975050505050505050565b5f60208284031215610a10575f80fd5b813567ffffffffffffffff811115610a26575f80fd5b610a328482850161088c565b949350505050565b5f8060408385031215610a4b575f80fd5b823567ffffffffffffffff80821115610a62575f80fd5b610a6e86838701610820565b93506020850135915080821115610a83575f80fd5b5061096085828601610820565b600181811c90821680610aa457607f821691505b602082108103610ac257634e487b7160e01b5f52602260045260245ffd5b50919050565b634e487b7160e01b5f52603260045260245ffd5b634e487b7160e01b5f52601160045260245ffd5b5f60018201610b0157610b01610adc565b5060010190565b8181038181111561033e5761033e610adc565b601f821115610b6257805f5260205f20601f840160051c81016020851015610b405750805b601f840160051c820191505b81811015610b5f575f8155600101610b4c565b50505b505050565b815167ffffffffffffffff811115610b8157610b816107db565b610b9581610b8f8454610a90565b84610b1b565b602080601f831160018114610bc8575f8415610bb15750858301515b5f19600386901b1c1916600185901b178555610c1f565b5f85815260208120601f198616915b82811015610bf657888601518255948401946001909101908401610bd7565b5085821015610c1357878501515f19600388901b60f8161c191681555b505060018460011b0185555b50505050505056fea2646970667358221220a2a4b7f6753343a7858984119e3d46d907f843e98d06ff6ff59f9e24925aa18e64736f6c63430008190033",
      "opcodes": "PUSH1 0x80 PUSH1 0x40 MSTORE PUSH1 0x1 DUP1 SSTORE PUSH1 0xA PUSH1 0x2 SSTORE CALLVALUE DUP1 ISZERO PUSH1 0x17 JUMPI PUSH0 DUP1 REVERT JUMPDEST POP PUSH2 0xC5D DUP1 PUSH2 0x25 PUSH0 CODECOPY PUSH0 RETURN INVALID PUSH1 0x80 PUSH1 0x40 MSTORE CALLVALUE DUP1 ISZERO PUSH2 0xF JUMPI PUSH0 DUP1 REVERT JUMPDEST POP PUSH1 0x4 CALLDATASIZE LT PUSH2 0x85 JUMPI PUSH0 CALLDATALOAD PUSH1 0xE0 SHR DUP1 PUSH4 0x8FB5548F GT PUSH2 0x58 JUMPI DUP1 PUSH4 0x8FB5548F EQ PUSH2 0xEE JUMPI DUP1 PUSH4 0xA4458DC4 EQ PUSH2 0x10D JUMPI DUP1 PUSH4 0xBE02318D EQ PUSH2 0x115 JUMPI DUP1 PUSH4 0xC1727583 EQ PUSH2 0x128 JUMPI PUSH0 DUP1 REVERT JUMPDEST DUP1 PUSH4 0x303C9FD3 EQ PUSH2 0x89 JUMPI DUP1 PUSH4 0x606DB617 EQ PUSH2 0xAF JUMPI DUP1 PUSH4 0x61B8CE8C EQ PUSH2 0xD0 JUMPI DUP1 PUSH4 0x8F781838 EQ PUSH2 0xD9 JUMPI JUMPDEST PUSH0 DUP1 REVERT JUMPDEST PUSH2 0x9C PUSH2 0x97 CALLDATASIZE PUSH1 0x4 PUSH2 0x926 JUMP JUMPDEST PUSH2 0x131 JUMP JUMPDEST PUSH1 0x40 MLOAD SWAP1 DUP2 MSTORE PUSH1 0x20 ADD JUMPDEST PUSH1 0x40 MLOAD DUP1 SWAP2 SUB SWAP1 RETURN JUMPDEST PUSH2 0xC2 PUSH2 0xBD CALLDATASIZE PUSH1 0x4 PUSH2 0x96A JUMP JUMPDEST PUSH2 0x344 JUMP JUMPDEST PUSH1 0x40 MLOAD PUSH2 0xA6 SWAP3 SWAP2 SWAP1 PUSH2 0x981 JUMP JUMPDEST PUSH2 0x9C PUSH1 0x1 SLOAD DUP2 JUMP JUMPDEST PUSH2 0xEC PUSH2 0xE7 CALLDATASIZE PUSH1 0x4 PUSH2 0xA00 JUMP JUMPDEST PUSH2 0x487 JUMP JUMPDEST STOP JUMPDEST PUSH2 0x9C PUSH2 0xFC CALLDATASIZE PUSH1 0x4 PUSH2 0x96A JUMP JUMPDEST PUSH0 PUSH1 0x20 DUP2 SWAP1 MSTORE SWAP1 DUP2 MSTORE PUSH1 0x40 SWAP1 KECCAK256 SLOAD DUP2 JUMP JUMPDEST PUSH2 0x9C PUSH2 0x610 JUMP JUMPDEST PUSH2 0x9C PUSH2 0x123 CALLDATASIZE PUSH1 0x4 PUSH2 0xA3A JUMP JUMPDEST PUSH2 0x624 JUMP JUMPDEST PUSH2 0x9C PUSH1 0x2 SLOAD DUP2 JUMP JUMPDEST PUSH0 PUSH1 0x1 SLOAD DUP4 LT PUSH2 0x177 JUMPI PUSH1 0x40 MLOAD PUSH3 0x461BCD PUSH1 0xE5 SHL DUP2 MSTORE PUSH1 0x20 PUSH1 0x4 DUP3 ADD MSTORE PUSH1 0xC PUSH1 0x24 DUP3 ADD MSTORE PUSH12 0x1251081B9BDD08199BDD5B99 PUSH1 0xA2 SHL PUSH1 0x44 DUP3 ADD MSTORE PUSH1 0x64 ADD JUMPDEST PUSH1 0x40 MLOAD DUP1 SWAP2 SUB SWAP1 REVERT JUMPDEST PUSH0 DUP4 DUP2 MSTORE PUSH1 0x20 DUP2 DUP2 MSTORE PUSH1 0x40 DUP1 DUP4 KECCAK256 DUP2 MLOAD DUP1 DUP4 ADD DUP4 MSTORE DUP2 SLOAD DUP2 MSTORE PUSH1 0x1 DUP3 ADD DUP1 SLOAD DUP5 MLOAD DUP2 DUP8 MUL DUP2 ADD DUP8 ADD SWAP1 SWAP6 MSTORE DUP1 DUP6 MSTORE SWAP2 SWAP5 SWAP3 SWAP4 DUP6 DUP5 ADD SWAP4 SWAP1 SWAP3 SWAP1 DUP8 SWAP1 DUP5 ADD JUMPDEST DUP3 DUP3 LT ISZERO PUSH2 0x25D JUMPI DUP4 DUP3 SWAP1 PUSH0 MSTORE PUSH1 0x20 PUSH0 KECCAK256 ADD DUP1 SLOAD PUSH2 0x1D2 SWAP1 PUSH2 0xA90 JUMP JUMPDEST DUP1 PUSH1 0x1F ADD PUSH1 0x20 DUP1 SWAP2 DIV MUL PUSH1 0x20 ADD PUSH1 0x40 MLOAD SWAP1 DUP2 ADD PUSH1 0x40 MSTORE DUP1 SWAP3 SWAP2 SWAP1 DUP2 DUP2 MSTORE PUSH1 0x20 ADD DUP3 DUP1 SLOAD PUSH2 0x1FE SWAP1 PUSH2 0xA90 JUMP JUMPDEST DUP1 ISZERO PUSH2 0x249 JUMPI DUP1 PUSH1 0x1F LT PUSH2 0x220 JUMPI PUSH2 0x100 DUP1 DUP4 SLOAD DIV MUL DUP4 MSTORE SWAP2 PUSH1 0x20 ADD SWAP2 PUSH2 0x249 JUMP JUMPDEST DUP3 ADD SWAP2 SWAP1 PUSH0 MSTORE PUSH1 0x20 PUSH0 KECCAK256 SWAP1 JUMPDEST DUP2 SLOAD DUP2 MSTORE SWAP1 PUSH1 0x1 ADD SWAP1 PUSH1 0x20 ADD DUP1 DUP4 GT PUSH2 0x22C JUMPI DUP3 SWAP1 SUB PUSH1 0x1F AND DUP3 ADD SWAP2 JUMPDEST POP POP POP POP POP DUP2 MSTORE PUSH1 0x20 ADD SWAP1 PUSH1 0x1 ADD SWAP1 PUSH2 0x1B5 JUMP JUMPDEST POP POP POP SWAP2 MSTORE POP POP DUP4 MLOAD PUSH1 0x20 DUP3 ADD MLOAD MLOAD SWAP2 SWAP3 POP SWAP1 DUP2 EQ PUSH2 0x2CA JUMPI PUSH1 0x40 MLOAD PUSH3 0x461BCD PUSH1 0xE5 SHL DUP2 MSTORE PUSH1 0x20 PUSH1 0x4 DUP3 ADD MSTORE PUSH1 0x23 PUSH1 0x24 DUP3 ADD MSTORE PUSH32 0x4861736820617272617973206D757374206265206F6620657175616C206C656E PUSH1 0x44 DUP3 ADD MSTORE PUSH3 0xCEE8D PUSH1 0xEB SHL PUSH1 0x64 DUP3 ADD MSTORE PUSH1 0x84 ADD PUSH2 0x16E JUMP JUMPDEST PUSH0 SWAP3 POP PUSH0 JUMPDEST DUP2 DUP2 LT ISZERO PUSH2 0x33A JUMPI PUSH0 PUSH2 0x318 DUP7 DUP4 DUP2 MLOAD DUP2 LT PUSH2 0x2ED JUMPI PUSH2 0x2ED PUSH2 0xAC8 JUMP JUMPDEST PUSH1 0x20 MUL PUSH1 0x20 ADD ADD MLOAD DUP6 PUSH1 0x20 ADD MLOAD DUP5 DUP2 MLOAD DUP2 LT PUSH2 0x30B JUMPI PUSH2 0x30B PUSH2 0xAC8 JUMP JUMPDEST PUSH1 0x20 MUL PUSH1 0x20 ADD ADD MLOAD PUSH2 0x624 JUMP JUMPDEST SWAP1 POP PUSH1 0x2 SLOAD DUP2 GT PUSH2 0x331 JUMPI DUP5 PUSH2 0x32D DUP2 PUSH2 0xAF0 JUMP JUMPDEST SWAP6 POP POP JUMPDEST POP PUSH1 0x1 ADD PUSH2 0x2CF JUMP JUMPDEST POP POP POP JUMPDEST SWAP3 SWAP2 POP POP JUMP JUMPDEST PUSH0 PUSH1 0x60 PUSH1 0x1 SLOAD DUP4 LT PUSH2 0x387 JUMPI PUSH1 0x40 MLOAD PUSH3 0x461BCD PUSH1 0xE5 SHL DUP2 MSTORE PUSH1 0x20 PUSH1 0x4 DUP3 ADD MSTORE PUSH1 0xC PUSH1 0x24 DUP3 ADD MSTORE PUSH12 0x1251081B9BDD08199BDD5B99 PUSH1 0xA2 SHL PUSH1 0x44 DUP3 ADD MSTORE PUSH1 0x64 ADD PUSH2 0x16E JUMP JUMPDEST PUSH0 DUP4 DUP2 MSTORE PUSH1 0x20 DUP2 DUP2 MSTORE PUSH1 0x40 DUP1 DUP4 KECCAK256 DUP2 MLOAD DUP1 DUP4 ADD DUP4 MSTORE DUP2 SLOAD DUP2 MSTORE PUSH1 0x1 DUP3 ADD DUP1 SLOAD DUP5 MLOAD DUP2 DUP8 MUL DUP2 ADD DUP8 ADD SWAP1 SWAP6 MSTORE DUP1 DUP6 MSTORE SWAP2 SWAP5 SWAP3 SWAP4 DUP6 DUP5 ADD SWAP4 SWAP1 SWAP3 SWAP1 DUP8 SWAP1 DUP5 ADD JUMPDEST DUP3 DUP3 LT ISZERO PUSH2 0x46D JUMPI DUP4 DUP3 SWAP1 PUSH0 MSTORE PUSH1 0x20 PUSH0 KECCAK256 ADD DUP1 SLOAD PUSH2 0x3E2 SWAP1 PUSH2 0xA90 JUMP JUMPDEST DUP1 PUSH1 0x1F ADD PUSH1 0x20 DUP1 SWAP2 DIV MUL PUSH1 0x20 ADD PUSH1 0x40 MLOAD SWAP1 DUP2 ADD PUSH1 0x40 MSTORE DUP1 SWAP3 SWAP2 SWAP1 DUP2 DUP2 MSTORE PUSH1 0x20 ADD DUP3 DUP1 SLOAD PUSH2 0x40E SWAP1 PUSH2 0xA90 JUMP JUMPDEST DUP1 ISZERO PUSH2 0x459 JUMPI DUP1 PUSH1 0x1F LT PUSH2 0x430 JUMPI PUSH2 0x100 DUP1 DUP4 SLOAD DIV MUL DUP4 MSTORE SWAP2 PUSH1 0x20 ADD SWAP2 PUSH2 0x459 JUMP JUMPDEST DUP3 ADD SWAP2 SWAP1 PUSH0 MSTORE PUSH1 0x20 PUSH0 KECCAK256 SWAP1 JUMPDEST DUP2 SLOAD DUP2 MSTORE SWAP1 PUSH1 0x1 ADD SWAP1 PUSH1 0x20 ADD DUP1 DUP4 GT PUSH2 0x43C JUMPI DUP3 SWAP1 SUB PUSH1 0x1F AND DUP3 ADD SWAP2 JUMPDEST POP POP POP POP POP DUP2 MSTORE PUSH1 0x20 ADD SWAP1 PUSH1 0x1 ADD SWAP1 PUSH2 0x3C5 JUMP JUMPDEST POP POP POP SWAP2 MSTORE POP POP DUP1 MLOAD PUSH1 0x20 SWAP1 SWAP2 ADD MLOAD SWAP1 SWAP6 SWAP1 SWAP5 POP SWAP3 POP POP POP JUMP JUMPDEST DUP1 MLOAD PUSH1 0x14 EQ PUSH2 0x4D8 JUMPI PUSH1 0x40 MLOAD PUSH3 0x461BCD PUSH1 0xE5 SHL DUP2 MSTORE PUSH1 0x20 PUSH1 0x4 DUP3 ADD MSTORE PUSH1 0x1E PUSH1 0x24 DUP3 ADD MSTORE PUSH32 0x4D7573742070726F766964652065786163746C79203230206861736865730000 PUSH1 0x44 DUP3 ADD MSTORE PUSH1 0x64 ADD PUSH2 0x16E JUMP JUMPDEST PUSH1 0x1 JUMPDEST PUSH1 0x1 SLOAD DUP2 LT ISZERO PUSH2 0x5CD JUMPI PUSH0 PUSH2 0x4EF DUP3 PUSH2 0x344 JUMP JUMPDEST SWAP2 POP PUSH1 0x1 SWAP1 POP PUSH0 JUMPDEST DUP5 MLOAD DUP2 LT ISZERO PUSH2 0x54E JUMPI PUSH0 PUSH2 0x530 DUP7 DUP4 DUP2 MLOAD DUP2 LT PUSH2 0x516 JUMPI PUSH2 0x516 PUSH2 0xAC8 JUMP JUMPDEST PUSH1 0x20 MUL PUSH1 0x20 ADD ADD MLOAD DUP6 DUP5 DUP2 MLOAD DUP2 LT PUSH2 0x30B JUMPI PUSH2 0x30B PUSH2 0xAC8 JUMP JUMPDEST SWAP1 POP PUSH1 0x2 SLOAD DUP2 GT ISZERO PUSH2 0x545 JUMPI PUSH0 SWAP3 POP POP PUSH2 0x54E JUMP JUMPDEST POP PUSH1 0x1 ADD PUSH2 0x4F7 JUMP JUMPDEST POP DUP1 ISZERO PUSH2 0x5C3 JUMPI PUSH1 0x40 MLOAD PUSH3 0x461BCD PUSH1 0xE5 SHL DUP2 MSTORE PUSH1 0x20 PUSH1 0x4 DUP3 ADD MSTORE PUSH1 0x32 PUSH1 0x24 DUP3 ADD MSTORE PUSH32 0x5468657365206861736865732061726520746F6F2073696D696C617220746F20 PUSH1 0x44 DUP3 ADD MSTORE PUSH32 0x616E206578697374696E6720656E7472792E0000000000000000000000000000 PUSH1 0x64 DUP3 ADD MSTORE PUSH1 0x84 ADD PUSH2 0x16E JUMP JUMPDEST POP POP PUSH1 0x1 ADD PUSH2 0x4DB JUMP JUMPDEST POP PUSH1 0x1 DUP1 SLOAD PUSH0 DUP2 DUP2 MSTORE PUSH1 0x20 DUP2 DUP2 MSTORE PUSH1 0x40 SWAP1 SWAP2 KECCAK256 SWAP2 DUP3 SSTORE DUP4 MLOAD SWAP2 SWAP3 PUSH2 0x5F7 SWAP3 SWAP1 DUP5 ADD SWAP2 DUP6 ADD SWAP1 PUSH2 0x71D JUMP JUMPDEST POP PUSH1 0x1 DUP1 SLOAD SWAP1 PUSH0 PUSH2 0x607 DUP4 PUSH2 0xAF0 JUMP JUMPDEST SWAP2 SWAP1 POP SSTORE POP POP POP JUMP JUMPDEST PUSH0 PUSH1 0x1 DUP1 SLOAD PUSH2 0x61F SWAP2 SWAP1 PUSH2 0xB08 JUMP JUMPDEST SWAP1 POP SWAP1 JUMP JUMPDEST PUSH0 DUP2 MLOAD DUP4 MLOAD EQ PUSH2 0x676 JUMPI PUSH1 0x40 MLOAD PUSH3 0x461BCD PUSH1 0xE5 SHL DUP2 MSTORE PUSH1 0x20 PUSH1 0x4 DUP3 ADD DUP2 SWAP1 MSTORE PUSH1 0x24 DUP3 ADD MSTORE PUSH32 0x486173686573206D7573742068617665207468652073616D65206C656E677468 PUSH1 0x44 DUP3 ADD MSTORE PUSH1 0x64 ADD PUSH2 0x16E JUMP JUMPDEST POP PUSH0 DUP1 JUMPDEST DUP4 MLOAD DUP2 LT ISZERO PUSH2 0x716 JUMPI DUP3 DUP2 DUP2 MLOAD DUP2 LT PUSH2 0x695 JUMPI PUSH2 0x695 PUSH2 0xAC8 JUMP JUMPDEST PUSH1 0x20 ADD ADD MLOAD PUSH1 0xF8 SHR PUSH1 0xF8 SHL PUSH31 0xFFFFFFFFFFFFFFFFFFFFFFFFFFFFFFFFFFFFFFFFFFFFFFFFFFFFFFFFFFFFFF NOT AND DUP5 DUP3 DUP2 MLOAD DUP2 LT PUSH2 0x6D4 JUMPI PUSH2 0x6D4 PUSH2 0xAC8 JUMP JUMPDEST ADD PUSH1 0x20 ADD MLOAD PUSH32 0xFF00000000000000000000000000000000000000000000000000000000000000 AND EQ PUSH2 0x70E JUMPI DUP2 PUSH2 0x70A DUP2 PUSH2 0xAF0 JUMP JUMPDEST SWAP3 POP POP JUMPDEST PUSH1 0x1 ADD PUSH2 0x67A JUMP JUMPDEST POP SWAP3 SWAP2 POP POP JUMP JUMPDEST DUP3 DUP1 SLOAD DUP3 DUP3 SSTORE SWAP1 PUSH0 MSTORE PUSH1 0x20 PUSH0 KECCAK256 SWAP1 DUP2 ADD SWAP3 DUP3 ISZERO PUSH2 0x761 JUMPI SWAP2 PUSH1 0x20 MUL DUP3 ADD JUMPDEST DUP3 DUP2 GT ISZERO PUSH2 0x761 JUMPI DUP3 MLOAD DUP3 SWAP1 PUSH2 0x751 SWAP1 DUP3 PUSH2 0xB67 JUMP JUMPDEST POP SWAP2 PUSH1 0x20 ADD SWAP2 SWAP1 PUSH1 0x1 ADD SWAP1 PUSH2 0x73B JUMP JUMPDEST POP PUSH2 0x76D SWAP3 SWAP2 POP PUSH2 0x771 JUMP JUMPDEST POP SWAP1 JUMP JUMPDEST DUP1 DUP3 GT ISZERO PUSH2 0x76D JUMPI PUSH0 PUSH2 0x784 DUP3 DUP3 PUSH2 0x78D JUMP JUMPDEST POP PUSH1 0x1 ADD PUSH2 0x771 JUMP JUMPDEST POP DUP1 SLOAD PUSH2 0x799 SWAP1 PUSH2 0xA90 JUMP JUMPDEST PUSH0 DUP3 SSTORE DUP1 PUSH1 0x1F LT PUSH2 0x7A8 JUMPI POP POP JUMP JUMPDEST PUSH1 0x1F ADD PUSH1 0x20 SWAP1 DIV SWAP1 PUSH0 MSTORE PUSH1 0x20 PUSH0 KECCAK256 SWAP1 DUP2 ADD SWAP1 PUSH2 0x7C4 SWAP2 SWAP1 PUSH2 0x7C7 JUMP JUMPDEST POP JUMP JUMPDEST JUMPDEST DUP1 DUP3 GT ISZERO PUSH2 0x76D JUMPI PUSH0 DUP2 SSTORE PUSH1 0x1 ADD PUSH2 0x7C8 JUMP JUMPDEST PUSH4 0x4E487B71 PUSH1 0xE0 SHL PUSH0 MSTORE PUSH1 0x41 PUSH1 0x4 MSTORE PUSH1 0x24 PUSH0 REVERT JUMPDEST PUSH1 0x40 MLOAD PUSH1 0x1F DUP3 ADD PUSH1 0x1F NOT AND DUP2 ADD PUSH8 0xFFFFFFFFFFFFFFFF DUP2 GT DUP3 DUP3 LT OR ISZERO PUSH2 0x818 JUMPI PUSH2 0x818 PUSH2 0x7DB JUMP JUMPDEST PUSH1 0x40 MSTORE SWAP2 SWAP1 POP JUMP JUMPDEST PUSH0 DUP3 PUSH1 0x1F DUP4 ADD SLT PUSH2 0x82F JUMPI PUSH0 DUP1 REVERT JUMPDEST DUP2 CALLDATALOAD PUSH8 0xFFFFFFFFFFFFFFFF DUP2 GT ISZERO PUSH2 0x849 JUMPI PUSH2 0x849 PUSH2 0x7DB JUMP JUMPDEST PUSH2 0x85C PUSH1 0x1F DUP3 ADD PUSH1 0x1F NOT AND PUSH1 0x20 ADD PUSH2 0x7EF JUMP JUMPDEST DUP2 DUP2 MSTORE DUP5 PUSH1 0x20 DUP4 DUP7 ADD ADD GT ISZERO PUSH2 0x870 JUMPI PUSH0 DUP1 REVERT JUMPDEST DUP2 PUSH1 0x20 DUP6 ADD PUSH1 0x20 DUP4 ADD CALLDATACOPY PUSH0 SWAP2 DUP2 ADD PUSH1 0x20 ADD SWAP2 SWAP1 SWAP2 MSTORE SWAP4 SWAP3 POP POP POP JUMP JUMPDEST PUSH0 DUP3 PUSH1 0x1F DUP4 ADD SLT PUSH2 0x89B JUMPI PUSH0 DUP1 REVERT JUMPDEST DUP2 CALLDATALOAD PUSH1 0x20 PUSH8 0xFFFFFFFFFFFFFFFF DUP1 DUP4 GT ISZERO PUSH2 0x8B8 JUMPI PUSH2 0x8B8 PUSH2 0x7DB JUMP JUMPDEST DUP3 PUSH1 0x5 SHL PUSH2 0x8C7 DUP4 DUP3 ADD PUSH2 0x7EF JUMP JUMPDEST SWAP4 DUP5 MSTORE DUP6 DUP2 ADD DUP4 ADD SWAP4 DUP4 DUP2 ADD SWAP1 DUP9 DUP7 GT ISZERO PUSH2 0x8E0 JUMPI PUSH0 DUP1 REVERT JUMPDEST DUP5 DUP9 ADD SWAP3 POP JUMPDEST DUP6 DUP4 LT ISZERO PUSH2 0x91A JUMPI DUP3 CALLDATALOAD DUP5 DUP2 GT ISZERO PUSH2 0x8FC JUMPI PUSH0 DUP1 REVERT JUMPDEST PUSH2 0x90A DUP11 DUP8 DUP4 DUP13 ADD ADD PUSH2 0x820 JUMP JUMPDEST DUP4 MSTORE POP SWAP2 DUP5 ADD SWAP2 SWAP1 DUP5 ADD SWAP1 PUSH2 0x8E6 JUMP JUMPDEST SWAP9 SWAP8 POP POP POP POP POP POP POP POP JUMP JUMPDEST PUSH0 DUP1 PUSH1 0x40 DUP4 DUP6 SUB SLT ISZERO PUSH2 0x937 JUMPI PUSH0 DUP1 REVERT JUMPDEST DUP3 CALLDATALOAD SWAP2 POP PUSH1 0x20 DUP4 ADD CALLDATALOAD PUSH8 0xFFFFFFFFFFFFFFFF DUP2 GT ISZERO PUSH2 0x954 JUMPI PUSH0 DUP1 REVERT JUMPDEST PUSH2 0x960 DUP6 DUP3 DUP7 ADD PUSH2 0x88C JUMP JUMPDEST SWAP2 POP POP SWAP3 POP SWAP3 SWAP1 POP JUMP JUMPDEST PUSH0 PUSH1 0x20 DUP3 DUP5 SUB SLT ISZERO PUSH2 0x97A JUMPI PUSH0 DUP1 REVERT JUMPDEST POP CALLDATALOAD SWAP2 SWAP1 POP JUMP JUMPDEST PUSH0 PUSH1 0x40 DUP3 ADD DUP5 DUP4 MSTORE PUSH1 0x20 PUSH1 0x40 DUP2 DUP6 ADD MSTORE DUP2 DUP6 MLOAD DUP1 DUP5 MSTORE PUSH1 0x60 DUP7 ADD SWAP2 POP PUSH1 0x60 DUP2 PUSH1 0x5 SHL DUP8 ADD ADD SWAP4 POP DUP3 DUP8 ADD PUSH0 JUMPDEST DUP3 DUP2 LT ISZERO PUSH2 0x9F2 JUMPI DUP8 DUP7 SUB PUSH1 0x5F NOT ADD DUP5 MSTORE DUP2 MLOAD DUP1 MLOAD DUP1 DUP9 MSTORE DUP1 DUP8 DUP4 ADD DUP9 DUP11 ADD MCOPY PUSH0 DUP9 DUP3 ADD DUP9 ADD MSTORE PUSH1 0x1F ADD PUSH1 0x1F NOT AND SWAP1 SWAP7 ADD DUP6 ADD SWAP6 POP SWAP3 DUP5 ADD SWAP3 SWAP1 DUP5 ADD SWAP1 PUSH1 0x1 ADD PUSH2 0x9AD JUMP JUMPDEST POP SWAP4 SWAP9 SWAP8 POP POP POP POP POP POP POP POP JUMP JUMPDEST PUSH0 PUSH1 0x20 DUP3 DUP5 SUB SLT ISZERO PUSH2 0xA10 JUMPI PUSH0 DUP1 REVERT JUMPDEST DUP2 CALLDATALOAD PUSH8 0xFFFFFFFFFFFFFFFF DUP2 GT ISZERO PUSH2 0xA26 JUMPI PUSH0 DUP1 REVERT JUMPDEST PUSH2 0xA32 DUP5 DUP3 DUP6 ADD PUSH2 0x88C JUMP JUMPDEST SWAP5 SWAP4 POP POP POP POP JUMP JUMPDEST PUSH0 DUP1 PUSH1 0x40 DUP4 DUP6 SUB SLT ISZERO PUSH2 0xA4B JUMPI PUSH0 DUP1 REVERT JUMPDEST DUP3 CALLDATALOAD PUSH8 0xFFFFFFFFFFFFFFFF DUP1 DUP3 GT ISZERO PUSH2 0xA62 JUMPI PUSH0 DUP1 REVERT JUMPDEST PUSH2 0xA6E DUP7 DUP4 DUP8 ADD PUSH2 0x820 JUMP JUMPDEST SWAP4 POP PUSH1 0x20 DUP6 ADD CALLDATALOAD SWAP2 POP DUP1 DUP3 GT ISZERO PUSH2 0xA83 JUMPI PUSH0 DUP1 REVERT JUMPDEST POP PUSH2 0x960 DUP6 DUP3 DUP7 ADD PUSH2 0x820 JUMP JUMPDEST PUSH1 0x1 DUP2 DUP2 SHR SWAP1 DUP3 AND DUP1 PUSH2 0xAA4 JUMPI PUSH1 0x7F DUP3 AND SWAP2 POP JUMPDEST PUSH1 0x20 DUP3 LT DUP2 SUB PUSH2 0xAC2 JUMPI PUSH4 0x4E487B71 PUSH1 0xE0 SHL PUSH0 MSTORE PUSH1 0x22 PUSH1 0x4 MSTORE PUSH1 0x24 PUSH0 REVERT JUMPDEST POP SWAP2 SWAP1 POP JUMP JUMPDEST PUSH4 0x4E487B71 PUSH1 0xE0 SHL PUSH0 MSTORE PUSH1 0x32 PUSH1 0x4 MSTORE PUSH1 0x24 PUSH0 REVERT JUMPDEST PUSH4 0x4E487B71 PUSH1 0xE0 SHL PUSH0 MSTORE PUSH1 0x11 PUSH1 0x4 MSTORE PUSH1 0x24 PUSH0 REVERT JUMPDEST PUSH0 PUSH1 0x1 DUP3 ADD PUSH2 0xB01 JUMPI PUSH2 0xB01 PUSH2 0xADC JUMP JUMPDEST POP PUSH1 0x1 ADD SWAP1 JUMP JUMPDEST DUP2 DUP2 SUB DUP2 DUP2 GT ISZERO PUSH2 0x33E JUMPI PUSH2 0x33E PUSH2 0xADC JUMP JUMPDEST PUSH1 0x1F DUP3 GT ISZERO PUSH2 0xB62 JUMPI DUP1 PUSH0 MSTORE PUSH1 0x20 PUSH0 KECCAK256 PUSH1 0x1F DUP5 ADD PUSH1 0x5 SHR DUP2 ADD PUSH1 0x20 DUP6 LT ISZERO PUSH2 0xB40 JUMPI POP DUP1 JUMPDEST PUSH1 0x1F DUP5 ADD PUSH1 0x5 SHR DUP3 ADD SWAP2 POP JUMPDEST DUP2 DUP2 LT ISZERO PUSH2 0xB5F JUMPI PUSH0 DUP2 SSTORE PUSH1 0x1 ADD PUSH2 0xB4C JUMP JUMPDEST POP POP JUMPDEST POP POP POP JUMP JUMPDEST DUP2 MLOAD PUSH8 0xFFFFFFFFFFFFFFFF DUP2 GT ISZERO PUSH2 0xB81 JUMPI PUSH2 0xB81 PUSH2 0x7DB JUMP JUMPDEST PUSH2 0xB95 DUP2 PUSH2 0xB8F DUP5 SLOAD PUSH2 0xA90 JUMP JUMPDEST DUP5 PUSH2 0xB1B JUMP JUMPDEST PUSH1 0x20 DUP1 PUSH1 0x1F DUP4 GT PUSH1 0x1 DUP2 EQ PUSH2 0xBC8 JUMPI PUSH0 DUP5 ISZERO PUSH2 0xBB1 JUMPI POP DUP6 DUP4 ADD MLOAD JUMPDEST PUSH0 NOT PUSH1 0x3 DUP7 SWAP1 SHL SHR NOT AND PUSH1 0x1 DUP6 SWAP1 SHL OR DUP6 SSTORE PUSH2 0xC1F JUMP JUMPDEST PUSH0 DUP6 DUP2 MSTORE PUSH1 0x20 DUP2 KECCAK256 PUSH1 0x1F NOT DUP7 AND SWAP2 JUMPDEST DUP3 DUP2 LT ISZERO PUSH2 0xBF6 JUMPI DUP9 DUP7 ADD MLOAD DUP3 SSTORE SWAP5 DUP5 ADD SWAP5 PUSH1 0x1 SWAP1 SWAP2 ADD SWAP1 DUP5 ADD PUSH2 0xBD7 JUMP JUMPDEST POP DUP6 DUP3 LT ISZERO PUSH2 0xC13 JUMPI DUP8 DUP6 ADD MLOAD PUSH0 NOT PUSH1 0x3 DUP9 SWAP1 SHL PUSH1 0xF8 AND SHR NOT AND DUP2 SSTORE JUMPDEST POP POP PUSH1 0x1 DUP5 PUSH1 0x1 SHL ADD DUP6 SSTORE JUMPDEST POP POP POP POP POP POP JUMP INVALID LOG2 PUSH5 0x6970667358 0x22 SLT KECCAK256 LOG2 LOG4 0xB7 0xF6 PUSH22 0x3343A7858984119E3D46D907F843E98D06FF6FF59F9E 0x24 SWAP3 GAS LOG1 DUP15 PUSH5 0x736F6C6343 STOP ADDMOD NOT STOP CALLER "
    },
    "gasEstimates": {
      "creation": {
        "codeDepositCost": "633000",
        "executionCost": "44874",
        "totalCost": "677874"
      },
      "external": {
        "compareHashes(uint256,string[])": "infinite",
        "getHammingDistance(string,string)": "infinite",
        "getHashById(uint256)": "infinite",
        "getTotalHashes()": "2402",
        "idToHash(uint256)": "2427",
        "nextId()": "2328",
        "similarityThreshold()": "2349",
        "storeHashes(string[])": "infinite"
      }
    },
    "methodIdentifiers": {
      "compareHashes(uint256,string[])": "303c9fd3",
      "getHammingDistance(string,string)": "be02318d",
      "getHashById(uint256)": "606db617",
      "getTotalHashes()": "a4458dc4",
      "idToHash(uint256)": "8fb5548f",
      "nextId()": "61b8ce8c",
      "similarityThreshold()": "c1727583",
      "storeHashes(string[])": "8f781838"
    }
  },
  "storageLayout": {
    "storage": [
      {
        "astId": 12,
        "contract": "MyContract.sol:MyContract",
        "label": "idToHash",
        "offset": 0,
        "slot": "0",
        "type": "t_mapping(t_uint256,t_struct(HashInfo)7_storage)"
      },
      {
        "astId": 15,
        "contract": "MyContract.sol:MyContract",
        "label": "nextId",
        "offset": 0,
        "slot": "1",
        "type": "t_uint256"
      },
      {
        "astId": 18,
        "contract": "MyContract.sol:MyContract",
        "label": "similarityThreshold",
        "offset": 0,
        "slot": "2",
        "type": "t_uint256"
      }
    ],
    "types": {
      "t_array(t_string_storage)dyn_storage": {
        "base": "t_string_storage",
        "encoding": "dynamic_array",
        "label": "string[]",
        "numberOfBytes": "32"
      },
      "t_mapping(t_uint256,t_struct(HashInfo)7_storage)": {
        "encoding": "mapping",
        "key": "t_uint256",
        "label": "mapping(uint256 => struct MyContract.HashInfo)",
        "numberOfBytes": "32",
        "value": "t_struct(HashInfo)7_storage"
      },
      "t_string_storage": {
        "encoding": "bytes",
        "label": "string",
        "numberOfBytes": "32"
      },
      "t_struct(HashInfo)7_storage": {
        "encoding": "inplace",
        "label": "struct MyContract.HashInfo",
        "members": [
          {
            "astId": 3,
            "contract": "MyContract.sol:MyContract",
            "label": "id",
            "offset": 0,
            "slot": "0",
            "type": "t_uint256"
          },
          {
            "astId": 6,
            "contract": "MyContract.sol:MyContract",
            "label": "hashValues",
            "offset": 0,
            "slot": "1",
            "type": "t_array(t_string_storage)dyn_storage"
          }
        ],
        "numberOfBytes": "64"
      },
      "t_uint256": {
        "encoding": "inplace",
        "label": "uint256",
        "numberOfBytes": "32"
      }
    }
  },
  "userdoc": {
    "kind": "user",
    "methods": {},
    "version": 1
  }
}